:020000021000EC
:10B00000004000200DFE01004DFE01004FFE01003A
:10B010000000000000000000000000000000000030
:10B0200000000000000000000000000051FE0100D0
:10B03000000000000000000053FE010055FE01006A
:10B0400057FE010057FE0100BD06020057FE010039
:10B0500057FE01000000000057FE010057FE0100EE
:10B0600057FE010057FE010057FE010057FE010088
:10B0700057FE010057FE010057FE010057FE010078
:10B0800057FE0100D9FE010057FE010057FE0100E6
:10B0900057FE010057FE010057FE010057FE010058
:10B0A00057FE010057FE01000000000000000000F4
:10B0B0000000000000000000000000000000000090
:10B0C000054B0648033310B51B1A062B03D9044B56
:10B0D000002B00D0984710BD602100206021002087
:10B0E000000000000648074910B5091A8910CB0F67
:10B0F0005918491003D0044B002B00D0984710BDBD
:10B1000060210020602100200000000010B5074CE5
:10B110002378002B09D1FFF7D3FF054B002B02D07A
:10B12000044800E000BF0123237010BD602100200F
:10B130000000000080740200094B10B5002B03D002
:10B140000849094800E000BF08480368002B02D105
:10B15000FFF7C8FF10BD064B002BF9D09847F7E763
:10B160000000000064210020807402005C210020A7
:10B1700000000000164B002B00D1144B9D464022CE
:10B1800092029A1A924600218B460F461348144A9F
:10B19000121A08F09DFD0F4B002B00D098470E4B64
:10B1A000002B00D098470020002104000D000D481E
:10B1B000002802D00C4800E000BF08F037FD200056
:10B1C000290005F0BDFB08F00BFDC046000008009B
:10B1D000004000200000000000000000602100206E
:10B1E000E42500200000000000000000043070474B
:10B1F00010B50400054B0722083308C008F05FFDB6
:10B20000230000222C3320001A7010BD10680200A9
:10B2100073B50400036801AD1E692A000123D02123
:10B22000B0472B782B34582B01D0602B02D12370E0
:10B23000012001E00020207076BD10B503680400F5
:10B240001B6898472C342378184010BD10B54479FA
:10B250000C7001794C01817989002143C479214323
:10B260001170027A5101427A92000A43817A0A43AC
:10B270001A7010BDF7B56B4604009E1D5F1DDD1DE5
:10B280002B0032003900FFF7E1FF23683A78DB68D2
:10B29000F2212000984723683278DB68F4212000EF
:10B2A000984723682A78DB68F52120009847FEBD7F
:10B2B00010B504000722043008F001FD2000FFF75C
:10B2C000D9FF10BD020070B5040003680B321D6980
:10B2D00088210623A8472200236805001E69113231
:10B2E00012238E212000B0472200236805401E69EA
:10B2F00023320123A1212000B04722002368EDB2B0
:10B3000005401E6924320723E1212000B047284070
:10B3100070BD70B50400FFF77BFF051E06D020004E
:10B32000FFF7D0FF05002000FFF7A4FF2C34280012
:10B33000257070BD73B5C37904000D00012B01D1D8
:10B34000FFF798FF23686A461E69F721082320004B
:10B35000B04700236946C95C9A000133A950082B05
:10B36000F8D176BDF8B5067BC47A877B457B36027B
:10B3700026433F020C11A41B2F437600CD10A91BBE
:10B380006443057CC07B2D02284300B22413444350
:10B3900005203FB27943A413C91209191160414332
:10B3A00080310812002B06D108F07CF900220C4BEA
:10B3B00006F050FF11E008F075F90022084B06F086
:10B3C00049FF0022074B07F069FB0022064B06F0FD
:10B3D00041FF0022054B06F011FC08F031FAF8BDE0
:10B3E000000059400000224000001440000040408E
:10B3F000030070B5050028331E78284B0835D41893
:10B40000EB7F02001D010F23293233402B431578B7
:10B4100032092D012A43624389031B05CB1A9A1A6C
:10B4200080238021DB01D218C31DDB7F0902634327
:10B43000DB125B1801002A310978D21349B24C4360
:10B440008021A412634389039B125B18811DCC7F6A
:10B45000411DC97F24020C43802124B2634389012A
:10B460005B189B135A43D3135B430430C07FDB113B
:10B4700043431B11D31AD843C822C01703405205B7
:10B48000934200DD1300181308F04EF90022044B1C
:10B4900007F004FB08F0D4F970BDC04600D4FEFFED
:10B4A0000000503FF0B595B012911393037E040055
:10B4B0000693C37DD1170793837E0893437E099338
:10B4C000037F0A93C37E0B93837F0C93437F0D937B
:10B4D000431CDB7F0E93C37F0F93C31CDB7F109352
:10B4E000831CDB7F100011930123764A5B42801896
:10B4F000594102000B000090019105F07FFC029081
:10B500000391207DE37C0002184300B2009A019B66
:10B51000C11705F073FC030D0F030603A07D1F4345
:10B52000637D0002184300B2029A039BC11705F025
:10B5300065FC0D06020A2A430B1292197B41190081
:10B540008023100000221B0280185941A27C637CDA
:10B5500012021A43002305F051FC4B10CD1705933E
:10B560002B4300D1ABE00A9B18020B9B184300B29F
:10B57000029A039BC11705F041FC089B06001802C4
:10B58000099B0F00184300B2009A019BC11705F0F8
:10B5900035FC8C466446C10B63040B434204B61869
:10B5A0005F418023129A5B039B1ADA179446644624
:10B5B0005A08E107D807069B1143079A1B02134359
:10B5C00000221BB2DB0092197B41801A99413E4A4E
:10B5D000002305F013FC2B00059A05F0EBFBCB04D0
:10B5E000440B1C43109B06001802119B4D1318437B
:10B5F00000B20F0022002B00C11705F0FFFB220054
:10B600002B0005F0FBFBCB01440E1C430E9B3200CC
:10B6100018020F9B4D16184300B23B00C11705F0EE
:10B62000EDFBA4197D41C20C4E033243CB14A41888
:10B630005D412906220A0A430C992B120C020D992E
:10B640000C4324B2E617250F31012943200180184D
:10B65000594108F069F800221C4B07F01FFA08F066
:10B66000EFF8139A031C013A052A29D8100005F0B7
:10B67000A9F903050B11161C15490CE0181C08F05C
:10B680008BF8144A144B15E0181C08F085F8134A7F
:10B69000134B0FE01349181C05F0A4FD10E0181C13
:10B6A00008F07AF8104A114B04E0181C08F074F8FE
:10B6B0000F4A104B06F0CEFD08F0C2F800E00E482D
:10B6C00015B0F0BD000CFEFF350C00000000703F0F
:10B6D0000000C84257ECC921C074AA409C086EF60D
:10B6E000CFBCF8400050C34796B321D150AA604068
:10B6F000F531E2ACBEEEBA400000C07FF0B591B0CB
:10B700001D0016AB1B780E00039317AB1B7808A91E
:10B71000040017000493FFF70DFE002804D1194B15
:10B720002B603B6033602AE0089B20001A03099BD2
:10B730001B0113430A9A1211134301930E9B0F9A94
:10B740001B021A430B9B029219030C9B07AA059339
:10B750001B0119430D9B1B111943039BFFF702FEAD
:10B760003860079F049B3A0001992000FFF79AFE7A
:10B770003A00306002992000FFF73AFE286011B0CD
:10B78000F0BDC0460000C07F2B30007870472D30E0
:10B79000704770B50D00040008222D3008F08FFAB4
:10B7A00029002000FFF784FD70BD000070B5040083
:10B7B0000D00FFF71DFD2000044B29000833236016
:10B7C00008222D3008F07BFA200070BD2C680200A2
:10B7D00070B50E001500094C34300178200003F0DC
:10B7E0000DFA3100200003F03CF92900200003F09D
:10B7F00038F9200003F06CFA012070BDB424002059
:10B80000F7B50F0034301E000500134C019201788B
:10B81000200003F0F3F93900200003F022F92000A2
:10B8200003F056FA29783200200003F0E2F90025EF
:10B83000200003F00CF9002809D0019B20006F1CA8
:10B840005D1903F009F9FFB228703D00F0E7A81B6D
:10B8500045426841C0B2FEBDB424002070470000DC
:10B86000F0B5294E87B033780C00002B03D0274960
:10B87000274804F007FC23682000DB68984723680A
:10B8800005001B692000984722490700684604F01C
:10B8900072FFEF19BD420DD02978102203A804F0E1
:10B8A000B4FF03A9684604F0E8FF03A804F01CFFF6
:10B8B0000135EFE710220021009809F037F9164F03
:10B8C00033783860002B09D0114D1449280004F05A
:10B8D000E4FB0A223968280004F067FC2368200092
:10B8E000DB689847236805001B6920009847010022
:10B8F000280001F0D7FE012004F0E0FA684604F0C9
:10B90000F3FE07B0F0BDC046A02000207C68020016
:10B9100070250020236B0200D4230020A9680200B8
:10B92000F0B50B680D00A3B00800DB6898472B68E2
:10B9300004001B69280098471149050019A804F064
:10B940001AFF6519AC421FD0217810221CA804F000
:10B950005CFF1E9B012B0AD10A491FA804F00BFFB4
:10B960001FA919A804F089FF1FA804F0BDFE1CA997
:10B9700019A804F082FF1CA804F0B6FE0134E1E728
:10B98000236B02008B6A0200ED4B1B78002B08D062
:10B99000EC4CED49200004F080FB19A9200004F0D4
:10B9A0008DFB0223002219A91FA804F0A1FF002388
:10B9B00003220CA91FA804F080FF1FA804F094FE26
:10B9C0000423022219A91FA804F092FF00230322D6
:10B9D0000DA91FA804F071FF1FA804F085FE06231F
:10B9E000042219A91FA804F083FF002303220EA933
:10B9F0001FA804F062FF1FA804F076FE08230622A9
:10BA000019A91FA804F074FF002303220FA91FA87F
:10BA100004F053FF1FA804F067FE0A23082219A9A7
:10BA20001FA804F065FF0023032210A91FA804F03B
:10BA300044FF1FA804F058FE0C230A2219A91FA8CE
:10BA400004F056FF0023032211A91FA804F035FFBC
:10BA50001FA804F049FE0E230C2219A91FA804F008
:10BA600047FF0023032212A91FA804F026FF1FA8E6
:10BA700004F03AFE10230E2219A91FA804F038FF83
:10BA80000023032213A91FA804F017FF1FA804F026
:10BA90002BFE1223102219A91FA804F029FF00234E
:10BAA000032214A91FA804F008FF1FA804F01CFE1D
:10BAB0001423122219A91FA804F01AFF002303223D
:10BAC00015A91FA804F0F9FE1FA804F00DFE162307
:10BAD000142219A91FA804F00BFF0023032216A9A2
:10BAE0001FA804F0EAFE1FA804F0FEFD182316228A
:10BAF00019A91FA804F0FCFE0023032217A91FA800
:10BB000004F0DBFE1FA804F0EFFD1A23182219A988
:10BB10001FA804F0EDFE0023032218A91FA804F0BB
:10BB2000CCFE1FA804F0E0FD1C231A2219A91FA8AF
:10BB300004F0DEFE002303221CA91FA804F0BDFEB2
:10BB40001FA804F0D1FD102200210CA808F0EEFF80
:10BB50001022070000210DA808F0E8FF10220400C1
:10BB600000210EA808F0E2FF1022060000210FA815
:10BB700008F0DCFF10220290002110A808F0D6FF88
:10BB800010220390002111A808F0D0FF1022049089
:10BB9000002112A808F0CAFF10220590002113A866
:10BBA00008F0C4FF10220690002114A808F0BEFF80
:10BBB00010220790002115A808F0B8FF1022089065
:10BBC000002116A808F0B2FF10220990002117A842
:10BBD00008F0ACFF10220A90002118A808F0A6FF78
:10BBE000102200210B901CA808F0A0FF05F080FF98
:10BBF000051C642047433C19E00F04196410200021
:10BC00003C3005F075FF514B1860300005F070FFB7
:10BC10004F4905F0B1FC041C029805F069FF011CB6
:10BC2000201C05F069F9FC21890505F0A5FC4949AE
:10BC300005F062F9484B1860039805F059FF444934
:10BC400005F09AFC041C049805F052FF011C201C0E
:10BC500005F052F9414905F0C5FA414905F0A0FD4A
:10BC6000404B1860059805F043FF394905F084FC06
:10BC7000041C069805F03CFF011C201C05F03CF953
:10BC8000364905F0AFFA364905F08AFD364B1860A3
:10BC9000079805F02DFF2E4905F06EFC041C08984E
:10BCA00005F026FF011C201C05F026F92B4905F0A4
:10BCB00099FA2E4B1860099805F01AFF244905F0EF
:10BCC0005BFC041C0A9805F013FF011C201C05F006
:10BCD00013F9224905F086FA254B1860184B1A789B
:10BCE0001E00002A10D0174C2249200004F0D5F97C
:10BCF0000B9805F0FDFE07F04FFD0B00022102003E
:10BD00000091200004F00DFB3378002B0ED00D4C79
:10BD10001949200004F0C1F9281C07F03DFD0B0073
:10BD2000022102000091200004F0FBFA281C05F01B
:10BD3000BDFE124B186019A804F0D6FC23B0F0BD6C
:10BD4000A020002070250020B76802008820002075
:10BD50000000C8420000704298200020000070419E
:10BD60000000A040942000209C20002050220020B1
:10BD70008C200020C3680200D468020084200020C8
:10BD800001220A4B70B51A60094B05001B78002B85
:10BD90000BD0084C0849200004F074F9280000F08A
:10BDA00057FF0100200004F093F970BDD423002058
:10BDB000A020002070250020E568020000220A4B28
:10BDC00070B51A60094B05001B7893420BD0084CE4
:10BDD0000849200004F056F9280000F039FF01005E
:10BDE000200004F075F970BDD4230020A0200020AD
:10BDF000702500200069020010B50400024B0360AA
:10BE000000F06EFF200010BD4C6D020010B5040064
:10BE1000FFF7F2FF200004F0A7FD200010BD000096
:10BE200010B50400024B0360FFF7E6FF200010BDD1
:10BE30005468020010B50400FFF7F2FF200004F080
:10BE400093FD200010BD0000F0B57F4D89B00021AA
:10BE5000280002F0C1FF7D4905F08EFB7C4C0121DA
:10BE60002060280002F0B8FF784905F085FB022128
:10BE70006060280002F0B0FF744905F07DFB0021EE
:10BE8000A060280002F0A8FF01210290280002F023
:10BE9000A3FF0221041C280002F09EFF211C051CA8
:10BEA000201C05F069FB291C061C281C05F064FBFE
:10BEB000011C301C05F020F807F06EFC03F0BEF901
:10BEC00006000F00029807F067FC32003B0003F009
:10BED00025F9604A604B06F0E1FD80235F4E1B06AA
:10BEE00030607160E81807F057FC80231B06029051
:10BEF0000391E01807F050FC029A039B03F00EF93F
:10BF0000544A554B06F0CAFD002202900391306856
:10BF10007168534B05F072FE0022524B04000D0075
:10BF200004F0E6FE0022002805D04F4B2000290037
:10BF300005F064FE04E04B4B2000290007F028F8D0
:10BF400030607160029803990022454B05F056FE5F
:10BF5000029003910A000100444B19605A60029854
:10BF600003990022424B04F0C3FE0022002805D0B2
:10BF7000306871683F4B05F041FE04E03C4B30688F
:10BF8000716807F005F80A22306071603A4B3B494E
:10BF90001A600868496833687468049305941A0045
:10BFA000230006F0F5FF07900022002307980C00FD
:10BFB0000D0004F0B1FE002802D180231B06E51815
:10BFC0002F49029A039B0868496806F0E1FF0022A6
:10BFD00000230F0004000E0004F09EFE002802D192
:10BFE00080231B06FE18220033000798290005F065
:10BFF00005FE07F025FC0499059A224B18601F4B9B
:10C0000019605A600299039A1D4B19605A601E4BC1
:10C010001B78002B15D01D4C1D49200004F03DF865
:10C0200003F01AFF05F0ACFD1A4B196805F0B8FBD8
:10C0300007F0B2FB0B00022102000091200004F087
:10C0400070F909B0F0BDC0469821002000002041E1
:10C05000B821002046DF617EDCA54C404024002052
:10C060000080664000003E4000A07440F82100209F
:10C0700000004E4000C07240EC230020D823002076
:10C08000E0230020C4210020802100207025002012
:10C09000736902002822002070B58AB002A85949AD
:10C0A00001F02CF802A800F0C2FD002800D18DE0BC
:10C0B000554B56491C68201C04F054FE002807D13B
:10C0C0005349201C04F062FE002802D0514C00E0CD
:10C0D0004E4C4E49201C05F063FB4F4905F04CFACD
:10C0E0004E4B061C1D684949281C04F03BFE2C1CC5
:10C0F000002800D0454C4649281C04F047FE002883
:10C1000000D0444C4149201C05F04AFB05AC1422E8
:10C11000051C0021200007F0DBFD301C04F09AFE16
:10C120003D492070281C05F027FA04F093FE3C4B93
:10C130003C496070186805F01FFA04F08BFEFE2180
:10C14000394DA0708905286804F0D6FE374905F0FE
:10C1500013FA04F07FFEFE2120718905686804F05F
:10C16000CBFE324905F008FA04F074FEFE2160713E
:10C170008905A86804F0C0FE2C4905F0FDF904F01B
:10C1800069FE2B492B4A2C4BA0710868496806F0C0
:10C1900061F804F077FE2949264A274BE0710868C8
:10C1A000496806F057F804F06DFE254B1F492072D0
:10C1B000186805F0E1F904F04DFE142260722100C8
:10C1C000204800F0A4FD012003F078FE1E4B1B78F0
:10C1D000002B15D01D4C1E49200003F05EFF03F01C
:10C1E0003BFE05F0CDFC1B4B196805F0D9FA07F0B2
:10C1F000D3FA0B00022102000091200004F091F814
:10C200000AB070BD54220020D023002000008C42D0
:10C210000000DE420000DC420000C040242200207A
:10C220009421002000002041B82100200000C842D5
:10C2300040240020666666666666F63FF8210020A8
:10C24000F021002000220020802100207025002005
:10C25000976902002822002030B52D4B8DB0039342
:10C26000049305930023040003AA0193009305A9F6
:10C2700004AB2848FFF742FA2749200003F00DFFDE
:10C28000039807F089FA022502000B0000952000B0
:10C2900004F03EF8214909A804F06DFA432106A8EC
:10C2A00004F0C4FA06A909A804F0FAFA0100200073
:10C2B00003F0ECFE06A804F017FA09A804F014FA3B
:10C2C0001749200003F0E9FE049807F065FA00958D
:10C2D00002000B00200004F01BF81249200003F0BC
:10C2E000DCFE1149200003F0D8FE059807F054FA4F
:10C2F000009502000B00200004F00AF80B49200012
:10C3000003F0E6FE012003F0D9FD0DB030BDC046BC
:10C310000000C07F48240020376A02003E6A020005
:10C32000416A02004E6A0200536A0200606A02001B
:10C33000F7B51D4D280002F004FE002833D0280078
:10C3400002F0ACFD060028000F0002F03DFE174C85
:10C35000002823D11649200003F09FFE69890A2294
:10C36000200003F01EFF1349200003F096FE0A226E
:10C370002989200003F015FF0F49200003F08DFEEE
:10C380003900300007F05CFA07F006FA0B000221D2
:10C3900002000091200003F0C4FF04E007492000E0
:10C3A00003F096FEFEE7F7BD8421002070250020F3
:10C3B000636A0200696A0200756A0200816A02000B
:10C3C00073B5FA203B4B8000196804F08FFB05F031
:10C3D0008FFB394B394D1860FF2328001A001900D4
:10C3E00001F02EF8364C37492200280007F0BCFB3C
:10C3F0003549364801F0F1F8354D0222354928001B
:10C4000001F0F4F8344E22003100280007F0ACFBB4
:10C41000324D08223249280001F0E8F822003100AC
:10C42000280007F0A1FB2F4E142312222E493000C2
:10C4300000F084FC2D4D22002900300007F094FB11
:10C440002B4E142312222B49300000F077FC2200DF
:10C450002900300007F088FB274E14233000082203
:10C46000264900F06BFC22002900300007F07CFB1D
:10C470006A460123137053709370D37004331371A1
:10C48000013B53710023694693711D487633D37184
:10C49000FFF78CF922001B491B4807F065FB1B4D79
:10C4A0000B21280002F034FC28002200184907F074
:10C4B0005BFB73BD902000207C21002054220020D3
:10C4C00080200020A5D30100886A0200B02100204E
:10C4D000CC2100208D6A020021BE01002C22002008
:10C4E000926A020000220020976A0200E1CC01005B
:10C4F000F42300209C6A020018240020A16A020094
:10C50000482400205DB801008421002098210020EB
:10C510001DED010070B50500164C0021200002F051
:10C520006DFB2900200002F09CFA012003F0C6FCFC
:10C530000021200002F06EFB03220021200002F007
:10C5400058FB012003F0BAFC200002F085FA050038
:10C55000200002F081FA0600012003F0AFFC200069
:10C5600002F07AFA012003F0A9FC30020543A8B2D8
:10C5700070BDC046B424002010B5FFF7CBFF05F016
:10C58000FFFA07F009F9074A074B06F087FA07F0A8
:10C5900057F907F001F9054A054B06F0F9FC07F0D9
:10C5A0004FF910BD7B14AE47E17A943F666666662C
:10C5B0006612714010B52720FFF7DEFF064904F030
:10C5C000DBFF064904F00EFE8421C90504F094FC4B
:10C5D00007F0E2F810BDC046000010410000A04086
:10C5E00010B52620FFF7C8FF064904F0C5FF06492D
:10C5F00004F0F8FD8421C90504F07EFC07F0CCF8B6
:10C6000010BDC046000010410000A04013B5FFF768
:10C61000E7FF07F015F9114B1860FFF7CBFF07F0A4
:10C620000FF90F4B18600F4B1B78002B15D00E4CD9
:10C630000E49200003F031FD03F00EFC05F0A0FAD6
:10C640000B4B196805F0ACF807F0A6F80B000221B7
:10C6500002000091200003F064FE13BD242200209C
:10C66000D02300208021002070250020A66A02002F
:10C6700028220020F7B5514B514D1968286804F065
:10C680003BFC041C03F0E8FB05F07AFA011C201CBB
:10C6900004F068FB002800D18EE003F0DDFB05F01C
:10C6A0006FFA484B28601B78474C002B18D047493D
:10C6B000200003F00DFD4649200003F0EEFC286841
:10C6C000444904F08FFD07F067F80B0002210200D7
:10C6D0000091200003F01CFE3F49200003F0F8FC0D
:10C6E0003E4E3378002B13D03D49200003F0D5FC9B
:10C6F00003F0B2FB05F044FA296805F051F807F0A1
:10C700004BF80B00022102000091200003F009FE0B
:10C710002000FFF7A1FD642003F0D0FBFFF708FE27
:10C72000642003F0CBFB2F4800F0BEFC3378002BD5
:10C7300013D02D49200003F0B0FC03F08DFB05F071
:10C740001FFA296805F02CF807F026F80B000221E3
:10C7500002000091200003F0E4FD244F3B68002B11
:10C7600005DCFFF771FBFFF751FF012300E0013B00
:10C770003B60FFF791FC3378002B1DD01C49200053
:10C7800003F08BFC03F068FB05F0FAF9296805F06B
:10C7900007F807F001F80B000221020000912000C9
:10C7A00003F0B6FD1349200003F077FC124B0A2278
:10C7B0001968200003F0F5FCF7BDC0467C2100207D
:10C7C00028220020A020002070250020C26902003D
:10C7D000BF6A020000007A44C66A0200802100207D
:10C7E000C96A020054220020ED6A0200EC230020F6
:10C7F000036B02000F6B0200F0230020E121F0B573
:10C80000834C8DB04902200003F0DEFD814E337869
:10C81000002B03D08049200003F03FFC322003F0BE
:10C820004DFB7E4802F05CF9322003F047FB00210B
:10C83000042003F061FB0021072003F05DFB0121D0
:10C84000062003F059FB0021062003F073FB337828
:10C85000002B03D07249200003F044FC714D2800E6
:10C86000FEF7EBFC002808D16F49200003F030FCF4
:10C87000FA20800003F022FBF0E72800FEF784FF97
:10C880006A49582803D06A49602800D069492000C5
:10C8900003F01EFC6849200003F01AFC674D5A2182
:10C8A000280002F00BFC002804D16549200003F0A9
:10C8B0000FFCFEE7280002F044FB0028FAD0280015
:10C8C00002F0ECFA06F0BCFF5E4904F069FF337831
:10C8D0006860002B03D05C49200003F0DEFB5B485E
:10C8E00002F049FA0A220100494803F05EFCFA20EE
:10C8F000800003F0E3FA564C564D2000290000F06A
:10C90000E2FB2900200000F08CFD534D280000F0D0
:10C9100058F90100200000F0D3FB5049200000F03E
:10C9200085FD2900200000F038FD4D4F2000391D05
:10C9300000F033FD4B4E2000311D00F02EFD4A4922
:10C940002000043100F029FD484B2000191D00F0A3
:10C9500024FD474B2000191D00F01FFD454A002112
:10C96000200000F0D9FB444A0121200000F0D4FB54
:10C97000424D00212A00380000F01EFA2A00002152
:10C98000300000F019FA3E4D00212A00374800F02F
:10C9900013FA2A000021364800F00EFA6B460025F3
:10C9A000D91D012238000D7000F0B1F96B4601224B
:10C9B000991D30000D7000F0AAF91422290002A878
:10C9C00007F086F902A9294800F07CF91422290011
:10C9D00007A807F07DF907A9254800F073F9294A4F
:10C9E000294B1A6003F050FA284B1860200000F021
:10C9F000B3FB084B1B78AB4203D02549044803F036
:10CA000067FBFA20400003F059FA0DB0F0BDC046B4
:10CA100070250020A02000201A6B0200B424002002
:10CA2000246B020048240020306B02006C6B020073
:10CA30004E6B0200986B0200B56B0200842100204F
:10CA4000C16B02000000C841F36B02009821002076
:10CA5000542200200C6C0200B0210020FFFF0000D7
:10CA6000CC2100202C22002000220020F4230020D2
:10CA70001824002081BD0100BDBD010061B8010086
:10CA800021B90100409C0000C8210020E8230020BB
:10CA9000146C020070B5002504AC24780573A9421B
:10CAA00005D10A4B0A4A23210A4807F065F80160BC
:10CAB0000949920052589B0002715B588371A30090
:10CAC0005B58856043710223C37170BD6B6C0200BB
:10CAD0002E6C0200796C0200206F0200037B002B99
:10CAE00004D1437383730361013303737047000000
:10CAF0001FB50191A02100240068C900D2B24450A2
:10CB0000012A07D0A24203D0032A05D1042202E061
:10CB1000022200E006221343034A8350034B019A8A
:10CB2000C250012343501FBD5405000024050000DE
:10CB300010B50400FFF7D2FFA1222368A179D2002B
:10CB400099506179064A2000995021790432995010
:10CB5000044B19685A689B68FFF7CAFF10BDC046AE
:10CB60000C050000802400200368074A99501A0031
:10CB7000FC32D1680029FCD0A321C90058580023F9
:10CB8000C0B2D3607047C0461C05000007B58022C4
:10CB9000074BD2051A6000229A6002321A710E23E6
:10CBA0000D320093034902330348FFF773FF07BDBB
:10CBB00080240020003000408C240020016082800E
:10CBC0007047006870478088704729DF704728DF0A
:10CBD0007047036818680130431E9841C0B270471F
:10CBE00080235B0510B51969006803F0F5FE0400A9
:10CBF0002000FFF7ECFF1128FAD010BD70B51C0023
:10CC000005000E00FFF7ECFFA408220031002868A1
:10CC1000FFF7DBFF1128F8D070BD002210B50068C7
:10CC20009A4203D284588C500432F9E710BD37B5CC
:10CC3000062504002A000021684607F049F82A006A
:10CC4000201D694607F02CF8431E9841C0B23EBD36
:10CC500010B5034C0430210000F0E0FC200010BDB2
:10CC6000A024002010B50430062207F028F810BDDB
:10CC700010B504300622002107F02AF810BD10B5C7
:10CC800004000160FFF7F4FF200010BD807A7047B8
:10CC9000C0687047007C704700207047C368585CCC
:10CCA000704770B50D00110002680400D6691A00C3
:10CCB000B0470123A374A369002B02D021002800F0
:10CCC000984770BD70B5040008000D0007F082FEA3
:10CCD0002368C2B22900DB692000984770BD0000BC
:10CCE000054B10B5083304000360C068002801D06C
:10CCF00006F0CCFF200010BDB06C020010B504009F
:10CD0000FFF7EEFF200003F02FFE200010BD10B54E
:10CD10000400807A031C904200D9131CDAB22374F9
:10CD2000E06806F0CCFF63690120002B04D01A688C
:10CD3000210012681800904710BD0000F8B51D00D2
:10CD4000040017000430104A00F0A0F80F4B08331D
:10CD500023602B1C142D00D9142300212000A37262
:10CD6000E16021746774A174E17461610C22183070
:10CD7000DEB206F0ADFF002D03D0300006F07CFFE0
:10CD8000E0602000F8BDC04603280000B06C02003F
:10CD9000407C7047C07C704710B5C274531E9A41E6
:10CDA00002239A1A06329A4013580C00002B02D024
:10CDB00001002000984710BD0B2902D806318900D8
:10CDC0000A507047416170477047704770470020B4
:10CDD0007047704770470020704700207047002060
:10CDE00070470020704700207047002070470020E7
:10CDF00070470020704700207047002070470020D7
:10CE0000704700207047704770477047704710B5F3
:10CE1000040003F0A9FD200010BD0000064B012214
:10CE2000083303606423838000238272C3800381FC
:10CE3000C36003617047C046E06C02000161704747
:10CE40000120704710B50400034B08330360FFF75F
:10CE500047FF200010BDC046446D020010B504001D
:10CE6000FFF7F0FF200003F07FFD200010BD000061
:10CE700070B504001D00FFF761FF034B25740833F4
:10CE80002000236070BDC046446D020010B5040050
:10CE9000FFF794FE024A200013780133137010BD8F
:10CEA000B2240020014B18787047C046B2240020FD
:10CEB00010B5C06803681B6A984710BD08B4024BE0
:10CEC0009C46043808BC6047B1CE010010B5C0686C
:10CED00003685B6A984710BD08B4024B9C4604384F
:10CEE00008BC6047CDCE010010B5C06803689B6ADE
:10CEF000984710BD08B4024B9C46043808BC6047F4
:10CF0000E9CE010010B5C0680368DB6A984710BD20
:10CF100008B4024B9C46043808BC604705CF0100AA
:10CF200010B5C06803681B6B984710BD08B4024B6E
:10CF30009C46083808BC604721CF010010B5C06886
:10CF400003685B6B984710BD08B4024B9C460838D9
:10CF500008BC60473DCF010010B5C06803689B6BFB
:10CF6000984710BD08B4024B9C46083808BC60477F
:10CF700059CF010010B5C0680468E46BA04710BD2C
:10CF800008B4024B9C46083808BC604775CF0100C6
:10CF900010B5C06803681B6C984710BD08B4024BFD
:10CFA0009C46083808BC604791CF010010B5C068A6
:10CFB00003685B6C984710BD08B4024B9C46083868
:10CFC00008BC6047ADCF010010B5C06803689B6C1A
:10CFD000984710BD08B4024B9C46083808BC60470F
:10CFE000C9CF010010B5C0680368DB6C984710BD5D
:10CFF00008B4024B9C46083808BC6047E5CF0100E6
:10D000000300FC339B6F10B5002B02D06130FF3062
:10D01000984710BD0300FC33DB6F10B5002B02D026
:10D020006130FF30984710BD0100100010B5046852
:10D030001A00613102AB1B78FF31646AA04710BD52
:10D040007047704770B5050004006135FF35110069
:10D050002800FC34FFF706FE236F002B01D02800C8
:10D06000984770BD0300FC3361305B6FFF3010B533
:10D070000400002B00D098472000FFF7F9FD10BDF9
:10D08000010010B561311000FF311A00FFF784FE76
:10D0900010BD010010B5100061311A0002AB1B7801
:10D0A000FF3100F07DFA10BD10B5C0680368DB6881
:10D0B000984710BD10B5C06803681B69984710BD3C
:10D0C0008C30016070479C300160704770B506007D
:10D0D000A836336804000D00002B05D100F036FAA5
:10D0E000800006F0C9FD30602000AC300378326863
:10D0F0009B009D5003780133037070BD70B50C0028
:10D1000005000800FFF7D0FF21002B006131FF313F
:10D1100015C915C3280070BD0F2903D85A318900DD
:10D1200040184260704710B50400FFF7BBFE800056
:10D1300006F0A2FD2300A0331860103303600C3307
:10D14000436024338360631CFF33C3600C3303618B
:10D150000523A434237010BD30210023F0B5AFB0F7
:10D1600002AA5218137003009033196804000029B2
:10D170001DD008A800F0BCFA08A800F0EAFA0223C3
:10D1800083429B415B4216AA143305001070537012
:10D1900008A800F0DCFA1A260100522002AB2A008F
:10D1A000761BC01806F08BFDF6B2012501E01C26A7
:10D1B0000D0023008C331968002924D008A800F042
:10D1C00097FA08A800F0C5FA431C0700B3421ADA20
:10D1D0001F231A006A4316A817540622022F00D8EC
:10D1E000043A6B43C3185A7008A8079300F0AFFACB
:10D1F000079B01003A00981C06F061FD023E0135D4
:10D20000F61BEDB2F6B2230094331968002915D04D
:10D210001A79002A12D0022E10D9531CB34201DB16
:10D22000023EF2B21F20684316ABC2541818FF2307
:10D230004370023006F043FD0135EDB223009C330C
:10D240001E68002E22D0300007F0C4FBC0B21D289B
:10D2500004D8302202AB9B18187004E030211D2343
:10D2600002AA52181370302202AB9B181A780923B5
:10D270008242804131214042181A02AB5B1818707B
:10D28000322002AB3100C01806F019FD2700A0378C
:10D290003B68002B02D12000FFF745FF00230793D6
:10D2A0002300A4331B78079A9A4201DB00271EE073
:10D2B000079B3A689B009E583000FFF784FC2C4B7C
:10D2C000984205D1301E00D0301F211DFFF77AFD96
:10D2D000079B0133E3E72300A8331B68BA00D65845
:10D2E0003000FFF770FC224B984206D00137230034
:10D2F000AC331B789F42EEDB07E0301E00D0301FBE
:10D300002100083100F05FF9F0E7002B0BD021007D
:10D310002D31FF312000FFF7D9FE21003931FF31D7
:10D320002000FFF7D3FE3022210002AB9B18AC3166
:10D330001B780978E0685A1E934102680491210025
:10D34000A8310968DBB203912100A4310978029168
:10D350002100A031096801910EA900919668290069
:10D3600016AAB047E06803681B6D98472FB0F0BD60
:10D370000328000070B50600A036336804000D00D5
:10D38000002B01D1FFF7CFFEA434237832689B0035
:10D390009D5023780133237070BD10B5FFF7EAFF6D
:10D3A00010BD0000194B10B51A00083202601A00B7
:10D3B00004008833703283604260FFF77BFE2300F5
:10D3C000A8331868002801D006F060FC2300A033C1
:10D3D0001868002801D006F059FC20003530FF30D5
:10D3E00000F0BAF820000930FF30FFF779FC200088
:10D3F000DC30FFF775FC2000B830FFF771FC20002F
:10D40000103000F0A1FE200010BDC046986D020053
:10D4100010B50400FFF7C6FF200003F0A5FA2000B6
:10D4200010BD10B5B830FFF74DFC10BD07B56B4609
:10D43000D9800633DC3002221900FFF768FC07BDF3
:10D44000354BF7B51A00083202601A008833836042
:10D45000030004007032103342601800009301F0A2
:10D46000BDFA2300002520008C335D609D601D7394
:10D470001D615D611D76DD611D6004331D772749E7
:10D48000B03000F0AAF82300B8330193022213232E
:10D4900023490198FFF752FC022320001A0021497A
:10D4A000DC30FFF74BFC204F601C3900FF3000F0F0
:10D4B00094F820001D4E0930042331002022FF3053
:10D4C000FFF73CFC20002D303900FF3000F07DF8E4
:10D4D0002000353031002022FF3000F045F82000D8
:10D4E00061302100FF30FFF7CAFB2000009B6D3048
:10D4F000E36010222900FF3006F0EAFB0C49019896
:10D50000FFF7E0FB29002000FFF790FFE068210013
:10D51000FFF794FC2000FEBD986D0200746D0200C0
:10D52000796D02007E6D0200836D0200886D02003D
:10D530008D6D020010B50400FFF740FB024A200089
:10D5400013780133137010BDB3240020014B1878F9
:10D550007047C046B3240020704710B5040003F0A4
:10D5600003FA200010BD000070B50400150004305F
:10D57000094AFFF7DFFF00212000084BA57208339E
:10D580002360E31CE1720422D9772830616206F03F
:10D590009FFB200070BDC04603280000406E0200C3
:10D5A00070B50400C3720D000C3011001A0006F0B3
:10D5B00086FB0122E31CDA77A36A002B02D021004C
:10D5C0002800984770BD41627047A02210B5040042
:10D5D0009201FFF7AFFF200010BDA02210B504009C
:10D5E0009201FFF753FC200010BD000013B50400AA
:10D5F0000123FFF73DFC074B012223606B46D91D39
:10D60000002320000B70FFF782FB034B20002360F8
:10D6100016BDC046586E020054680200F0B51E4C9C
:10D620008BB005000E0001A8210003F0A4F8210032
:10D6300004A803F0A0F805242B5D0F2B03D817498D
:10D6400001A803F020F91022295D07A803F0DDF8F6
:10D6500007A904A803F0C0F807A803F045F804A937
:10D6600001A803F00AF9671E002C06D00C4901A896
:10D6700003F009F93C007B1CDED1002312223100AB
:10D6800001A803F01AF904A803F02EF801A803F08A
:10D690002BF80BB0F0BDC046236B02008B6A020072
:10D6A0007F6A0200F8B506000F000400A31B0D4DB1
:10D6B0009F4212DD0F222378934303D10A492800A9
:10D6C00002F0EBFC21781022280002F046FD074909
:10D6D000280002F0E2FC0134E8E7280002F0E6FC52
:10D6E000F8BDC046702500208B6A0200C2690200A6
:10D6F000F0B50023050085B003AE2960037508006E
:10D700000F0033707370B37007F064F9441E002C7F
:10D710001ADB2B7D01930F2B16D83A5D2D2A01D1F0
:10D7200001340FE03B19013B1B787270002110227D
:10D730003000337007F08AFA019BEB1818712B7DCB
:10D7400001332B75023CE2E7280005B0F0BD043040
:10D750007047007D704771DF704772DF704773DF7D
:10D76000704775DF704776DF704777DF704778DF87
:10D7700070477ADF70477CDF70477EDF70477FDF5E
:10D78000704786DF704790DF704792DF704796DF03
:10D79000704798DF704799DF7047A0DF7047A2DFBE
:10D7A0007047A3DF7047A4DF7047A6DF7047A9DF8B
:10D7B000704760DF704761DF704762DF704763DF8B
:10D7C000704753DF704710DF704711DF70476030DC
:10D7D0000078431E9841C0B2704703000200002049
:10D7E00030B571331C78A04213DA556F0301EB1882
:10D7F0001D688D420BD10020D98981420AD01B7B44
:10D800009B0707D5783213780130584002E0013089
:10D81000E9E7002030BD0300002270B571331C78A9
:10D82000A24219DA456F1301EB181D688D4211D120
:10D830000022D989914210D01B7B9B070DD5030094
:10D84000012478331C70808FFFF7A1FF42424241D0
:10D85000D2B202E00132E3E70022100070BD020004
:10D860000300002030B571321478A0421BDA5D6FDE
:10D870000201AA1815688D4213D10020D189814276
:10D8800012D0127B110704D578331B780130584031
:10D890000AE0520708D560331878431E9841C0B299
:10D8A00002E00130E1E7002030BDF0B587B00500AF
:10D8B0000193713006780020B0422FDA6F6F0401B7
:10D8C0003C1927688F4227D10020E689864226D05E
:10D8D000217B0C24214222D02F0060373C788442E7
:10D8E0001DD002230907C90F5B1A03A90B706B46F1
:10D8F0009B888A60CB802B0001227833013C1A7010
:10D9000048704E8088803C70A88FFFF742FF03006C
:10D9100058425841C0B202E00130CDE7002007B0C4
:10D92000F0BD0300002230B571331C78A24212DA38
:10D93000456F1301EB181D688D420AD10020DA896A
:10D94000824209D0187B30231840431E9841C0B250
:10D9500002E00132EAE7002030BD7FB5030002009B
:10D96000002071331C78A0422ADA556F0301EB18AE
:10D970001D688D4222D10020DC89844221D03021D3
:10D980001B7B0B421DD002266946DB06DB0F8D197F
:10D99000F31A01A92B804870012388801000E41835
:10D9A00078300B7003704C80CE808D60908FFFF7C5
:10D9B000F0FE030058425841C0B202E00130D2E705
:10D9C000002004B070BD10B503681B6C984710BDF3
:10D9D0000300002230B571330400187885B082420C
:10D9E00027DA656F1301EB181D688D421FD10020E7
:10D9F000DA8982421ED0197B302319421AD06B4635
:10DA000058809D1C012301A9D2184A800222CA8095
:10DA1000220078320B701370487088808D60A08F60
:10DA2000FFF7B7FE030058425841C0B202E001328E
:10DA3000D5E7002005B030BD0B0010B5273314DB4F
:10DA40000B001D3313DB0B00133312DB0B000F3302
:10DA500011DB0B000B3310DBCB1D10DBCB1C10DB01
:10DA6000CB17581AC00F80000DE028200AE01E20B6
:10DA700008E0142006E0102004E00C2002E008205A
:10DA800000E00420404240B2FFF76FFE434258419D
:10DA9000C0B210BD10B51321808FFFF764FE10BD1A
:10DAA00013B504006846FFF756FE2069002805D02C
:10DAB0006A4603680132DB692100984713BD000004
:10DAC000002337B5040001A80193FFF77AFE0198FF
:10DAD00005F0E8FD0022074B04F0E0FF05F0B0FE82
:10DAE000021C2069002803D001680D6A2100A847A4
:10DAF00037BDC0460000D03F704710B5040086B067
:10DB000018220021684606F0E3F80023A27A9A4220
:10DB100006D1230034331B785A1E93410322D31AB3
:10DB20006A461370A0880A21000102F0DFFF6B46ED
:10DB300018826846FFF713FE06B010BD0300F0B56B
:10DB400061330C001A7805000023142191B0934230
:10DB500062DA0E005E43686E86193068A04209D111
:10DB60002000FFF715F90123184255D07368002BE8
:10DB700002D151E00133EAE72F00290033373B7827
:10DB800014311A0008A8019306F099F823682000C0
:10DB90001B699847019B04301818C3B201931F2BCF
:10DBA0003AD87068FFF70DF8010002A8FFF7A0FD52
:10DBB000236820001B693E789847182202AB9B1807
:10DBC000033098553E7808AB9B19023A02A85A7068
:10DBD000FFF7BDFD023608AB01000222981906F0DE
:10DBE0006EF83E7808AB04369E1923682000DB6887
:10DBF0009847236807001B692000984739000200F6
:10DC0000300006F05CF8002301991A0008A8FFF71D
:10DC1000A4FDAC63012000E0002011B0F0BD0A219A
:10DC2000F0B5D9B004ABC9188E2311AE5B00040067
:10DC300030000B80FFF7BFFD011E00D067E2338884
:10DC4000302B00D149E111D8112B5BD004D8012B26
:10DC500021D0102B25D05AE2142B00D1CEE0192B65
:10DC600000D1DAE0132B00D051E2A3E0382B00D131
:10DC7000FFE106D8322B00D17EE1362B00D1DEE168
:10DC800045E2502B00D1DBE0522B00D11FE1392BB4
:10DC900000D03CE211E260342278337AD31823704A
:10DCA00035E2B08809ADA0872900FFF786FD230083
:10DCB0002A7860331A702069002806D03D22036854
:10DCC00004A952181B6821009847E288052A0FD939
:10DCD000C821238909018B420AD86B800023AB80BD
:10DCE0009133FF332A80EB80A08F2900FFF739FDA5
:10DCF000230068331B78002B00D108E2A08F00229C
:10DD000001211CE101235B42A3872300050060334E
:10DD10001870230061331B789D4218DA14260027FF
:10DD20006E43636E9E19377477743068FFF732F86C
:10DD3000B8420AD02069B84207D0036832685B69EC
:10DD400021009C463B006646B0470135E1E720696B
:10DD5000002803D0036821005B68984700250C2643
:10DD6000230068331B789D4204DB00232500180044
:10DD700071350AE030006843E36E04221818083059
:10DD8000002105F0A5FF0135EAE72A78934208DA79
:10DD9000616F1A0189180873616F01338A18D08185
:10DDA000F3E72300002278331A70236820009B6970
:10DDB0009847ACE1E068002800D1A2E1FEF709FF36
:10DDC000002800D09DE107AD05220021280005F0C4
:10DDD0007FFF01233022EB7013432B7007230021B8
:10DDE0006B700933AB70E36D0D9109930E910F9138
:10DDF0000A910B91A08F09AB2A0086E1E56D338A69
:10DE00006A8AA08F9A4203D10B000A00290001E020
:10DE10000B000A00FFF7B5FC79E1327A002A00D046
:10DE200075E1E068002804D021001C234031FEF792
:10DE3000E5FE2069002800D169E103689B68FBE0EA
:10DE40000500F3880393230061331B789D4200DBB8
:10DE50005DE114276F43636E039ADF193B89934298
:10DE60000CD12069002800D151E1327C0368009276
:10DE70001D69462304AA9B183A683DE1BB89039AB1
:10DE8000934222D1F37CB27C1B021343012299B24C
:10DE900013403B7401234A081A4002330B407A7442
:10DEA0005A1E93413868DBB20493FEF773FF049B5C
:10DEB00098420AD02069002800D128E103683A6816
:10DEC0005D692100049BA84721E10135BBE7A08FD4
:10DED0000B000A00FFF76BFC19E1F588002D31D12A
:10DEE0004227B389039304ABFF18039B9D421EDABC
:10DEF000230068331A780023934215DA0C20584324
:10DF0000E16E0818B9788C4681798C450AD1398838
:10DF10008C4681888C4505D1391D0422083005F0D6
:10DF2000CEFE01E00133E7E701350837DDE70022E7
:10DF3000039BA08FDB00F618B189013189B2FFF78E
:10DF400022FCE4E0230005000C2168331A78954296
:10DF500000DBDCE00B006B43E06EC318188900287F
:10DF600008D05889002805D0220008337032157077
:10DF7000190057E00135EAE72000F3887030002BE4
:10DF80003DD10C2142220378E76E4B43FB189B687E
:10DF9000099304ABD2180A23B58905916B430E335C
:10DFA000F3180393230071330493039B9A4221D007
:10DFB0000025049B1B789D4217DA666F2B01F3182E
:10DFC000059906784E435968F6598E420BD19178DF
:10DFD0009E7AB14207D111881E89B14203D11679C8
:10DFE0001E731689DE810135E3E7158909AB1D80B3
:10DFF0000A32DAE7A08F09A9FFF7C7FB87E0230001
:10E0000068331D780C23027801325343AA420EDA9A
:10E01000E16EC9180E89002E06D04E89002E03D05D
:10E0200002700831A08FE7E701320C33EEE7206978
:10E0300000286CD00368DB682100984767E0230064
:10E04000783318700623F288FF339A4202D1E368CE
:10E05000002B19D12300713318780023B189834232
:10E0600055DA656F1A01AA18D5898D4239D0013366
:10E07000F5E72300783318700623F288FF339A42BD
:10E0800045D1E368002B42D009AD0522280005F0F8
:10E090001FFE0121EA782B780A43EA7070220B43B5
:10E0A0009343403A13432B7007236B700933AB70D3
:10E0B000A08F2900FFF761FB29E0B37BB589022B14
:10E0C00003D1A08F2900FFF766FB23007133197875
:10E0D00000238B421BDA606F1A018218D089A84294
:10E0E0000DD12069002812D0317C036800919D6910
:10E0F000462304A912685B182100A84707E00133F2
:10E10000E7E7002385211A00A08FFFF738FB59B0FD
:10E11000F0BD10B50400FFF758FB606F002801D078
:10E1200005F0B4FDE06E002801D005F0AFFD606E93
:10E13000002801D005F0AAFD2200002361327134CD
:10E140001370D371237010BD10B50400044B083355
:10E150000360FFF7DEFF2000FEF758FE200010BD31
:10E16000846E020010B50400FFF7EEFF200002F0FD
:10E17000FBFB200010BD000013B56C4612886180C7
:10E18000228001006A4602480193FFF70CFB16BD8E
:10E19000FFFF0000F0B5F3B002937AAB1B780700E5
:10E1A00007937CAB1B7801911400D14904220EA87F
:10E1B000099305F084FD00210EA8FFF704FB13ADC1
:10E1C000CC4B14220021280001260F9305F080FD7E
:10E1D0000A230FA928002B802E732E72FFF7E9FA6D
:10E1E0002823002511A80380DB1843804133FF3327
:10E1F000C3808580FFF7BDFA2800FFF7B6FA022337
:10E200003B750433BB753B00032233337E751A70B4
:10E21000019BAB421FD0AC421DD01F23019A534338
:10E22000E618B44217D03D003335287823783A18E1
:10E230000133137563780230C0B2537528703818F3
:10E240002278A11C143005F03AFD23782A781F3477
:10E25000D3182B70E5E70023029A9A4221D0789ACE
:10E260009A421ED01F261500029A5643AA190192FF
:10E27000019AAA4215D02E782AA8721CC254697835
:10E28000C2180233DCB251700019A91C320005F02B
:10E2900016FD3A00012134193432E3B211701F35F2
:10E2A000E6E73A0038003332117814302AAAFFF733
:10E2B00054FA0020FFF75BFA0024079B9C420EDA19
:10E2C000799AA300D058FEF77EFC8B4B984204D17C
:10E2D0003A0061321378013313700134EDE73B00EB
:10E2E000613318780338C0B218701423584305F00E
:10E2F000C3FC00230BAA1380799A786602920193DB
:10E3000008930493019B079A934200DB11E2029B5E
:10E310001D682800FEF755FC01001DA8FFF7E8F96D
:10E320001DA8FFF714FA04001DA8FFF712FA02282F
:10E3300008D1637821781B0210AA0B4313800123B4
:10E34000937014E032AE10222100300005F0B7FCCB
:10E35000637B227B1B02134310AA138000231A2124
:10E36000737333730AABC9183000FFF728FA28001B
:10E37000FEF729FCA0239B01984212D12800FEF74A
:10E3800020FC5E4906F014FB002800D1CAE12800F9
:10E39000FEF717FC5A4906F00BFB002800D1C1E13B
:10E3A00082E22800FEF70FFC534B984200D048E170
:10E3B0002C1E00D02C1F251D2800FEF702FC514901
:10E3C00006F0F6FA002813D10122102332AD1343D0
:10E3D0002B7023682000DB689847236806001B69C0
:10E3E00020009847310082B22800FFF7C4F999E174
:10E3F0002800FEF7E6FB444906F0DAFA002807D1C8
:10E4000023682000DB6898470088FFF7B0F989E1AE
:10E410002800FEF7D6FB3D4906F0CAFA002800D1D5
:10E4200080E12000FEF7B4FC236803901B69200004
:10E4300098470AABD88014230026049A31005A4327
:10E440007B6E05929B18089A1C605A601E745E745D
:10E450001C2223A805F03CFC01226421039B93436A
:10E460000AAA521813703023039A1A4213D00CAD23
:10E4700003223100280005F02BFC102301221A434F
:10E480002A70012213436B70AB7805329343043A30
:10E490001343AB7028950DAD03220021280005F031
:10E4A00017FC3223039A1A4212D0FA68233B002A3F
:10E4B00006D001212A789A430A431340202205E01E
:10E4C00001212A789A430A431340102213432B70E8
:10E4D0000C23039A1A4223D0FA6803330DA9002AA9
:10E4E00016D001204A789A4302431340202215E0B7
:10E4F000806E02008020002003280000746D02005E
:10E50000836D0200796D02007E6D0200886D02004D
:10E5100001204A789A4302431340102213434B7060
:10E5200006220DADAB7820009343043A1343AB7041
:10E5300023689B69984701210122AB7882438B4372
:10E540001343AB70019B5B180393029B0693079ADE
:10E55000039B934238DA069B5E683000FEF733FB7C
:10E56000A4239B0198422FD1351E00D0351F2E1DAC
:10E570003000FEF726FBD34906F01AFA002810D126
:10E580002B6828009B68984724902B682800DB683C
:10E5900098472B6823AE3081DB682800984770814C
:10E5A0000CE03000FEF70DFBC74906F001FA002829
:10E5B00004D12B6828009B6898472690039B013361
:10E5C0000393069B0433C1E718AE142200213000E8
:10E5D00005F07EFB10AB18930DAB73600AABDB88C4
:10E5E00020003381236800259B689847059A7B6E3D
:10E5F000B0819B180833320023A928003561FFF74A
:10E60000CEF80AABDB88AB4216D00AAB9A1D138852
:10E610009D4208DA236829005B692000984732ABE5
:10E62000E8540135F1E7796E059B8C4663441889FF
:10E63000002132ABFFF7A0FD049B0133DBB2049352
:10E6400070E02800FEF7BFFAA4239B01984269D12D
:10E650002C1E00D02C1F251D2800FEF7B2FA994968
:10E6600006F0A6F900285DD02800FEF7AAFA97491F
:10E6700006F09EF9002855D02800FEF7A2FA94492A
:10E6800006F096F900284DD02800FEF79AFA8E4938
:10E6900006F08EF9002845D023682000DB689847F3
:10E6A0000DAE18AD30801422002123A805F010FB18
:10E6B00003220021280005F00BFB0223AB70236826
:10E6C0002000DB689847328880B2801A030001215D
:10E6D000581E8341A87888431843A870F8680E3103
:10E6E0002B78002800D1E6E001208B4303430B4048
:10E6F00020210B432B7010AB239318AB249323687A
:10E7000023AEDB683281200098470025B0810BAA38
:10E71000310028003561FFF744F80DAB1B88AB4290
:10E7200000D0D9E0019B01330193029B0433029393
:10E73000E8E50024099BA34220D01E002500023EEC
:10E74000F6B23400B54219DA7B9AAB00D4582000F7
:10E75000FEF739FAA0239B01984202D13A006832B1
:10E7600007E02000FEF72FFA5A4B984204D13A00F6
:10E7700071321378013313700135E2E73B006833DF
:10E7800018780C23584305F077FA3B00F86671338C
:10E790001878A400000105F06FFA7B9E78673319A2
:10E7A00004930023029301930393049B9E426ED033
:10E7B00034682000FEF705FA010032A8FEF798FF42
:10E7C00032A8FEF7C4FF050032A8FEF7C2FF0228F8
:10E7D00008D16B7829781B021DAA0B4313800123F3
:10E7E000937019E01022290023A805F068FA6B7BCA
:10E7F0002A7B1B02134371211DAA138000230AAA3E
:10E800005218137001390AAA5218137022390AAB30
:10E81000C91823A8FEF7D3FF2000FEF7D4F9A023E0
:10E820009B01984214D10C20019B00215843FB6EA0
:10E830001B181C601D9A5A60FB6E042218180830C1
:10E8400005F046FA019B03940133DBB201931CE00F
:10E850002000FEF7B8F91F4B984216D1029B7A6F41
:10E860001B01D218211E00D0211F11600399516095
:10E870001D99916000217A6FD21811737A6FD318A5
:10E88000D981029B0133DBB2029304368DE7F8682D
:10E89000002803D0FEF79DF9002831D13B683800ED
:10E8A0009B69984773B0F0BD0BAA10A90120FEF731
:10E8B00074FF089536E701208B4303430B4010217A
:10E8C00017E7C046E86E0200ED6E0200F26E02002D
:10E8D000F76E0200032800000DAA13889D4208DA93
:10E8E000236829001B692000984732ABE8540135A2
:10E8F000F2E70BAB1888002132ABFFF73DFC11E7C4
:10E9000039001C2300224031F868FEF786F9C5E77C
:10E910000023F0B504000E0089B000930133019389
:10E92000230061331B78009A9A4253DA1425554329
:10E93000636E5D192B68B34248D1A36B9E4204D12C
:10E94000236831005B6A20009847336830001B69F8
:10E95000984702ABD88033683000DB682F8998472E
:10E9600002AA030006323800002104AFFFF704FCBE
:10E9700010220021380005F0ABF92B893B8002AB57
:10E980000633BB602B7C002B0ED022006032137844
:10E99000002B08D0013B13700123BB70A08F3900FE
:10E9A000FEF703FF00E001936B7C002B0ED02200EA
:10E9B00060321378002B08D0013B13700223BB7028
:10E9C000A08F3900FEF7F1FE00E00193009B0133B8
:10E9D0000093A5E7019809B0F0BD000010B5040050
:10E9E000FEF71CFA0F4B002108332360230033335A
:10E9F0001970597001235B42A38720002300403027
:10EA00006033A1631C221970597061661972E16646
:10EA10001974597461671976E06505F059F9200099
:10EA200010BDC046846E0200F8B505000E00170048
:10EA30000024BC4208D02B68315D1B682800984731
:10EA4000002801D00134F4E72000F8BD704710B56C
:10EA50001C3001F09EFC10BD10B51C3001F08BFC89
:10EA600010BD70B5437E0D00002B05D0643004004E
:10EA700001F09EFC002801D0002004E020002900C5
:10EA800001F06AFC012070BD10B51C3001F087FC5C
:10EA900010BD0000F7B50193FA23002504009B0088
:10EAA00083600D4B4560083303601C300F00160077
:10EAB00001F047FC2000643001F043FC074AB60037
:10EAC000B35827616375019B20009B009B586576B6
:10EAD000A576A375FEBDC046FC6E0200206F020045
:10EAE0000123A022C375837D0C49C133FF33D205B6
:10EAF0009B009950437DC133FF339B009950CC213B
:10EB00000369074A490499500521243A9950817DA7
:10EB100008329950417D034A995070470C06000015
:10EB2000240500000C050000F7B5050000200C00CE
:10EB3000019382425CD0161E402E00D940262F0041
:10EB40001C37380001F013FCB1222B69D200802160
:10EB50009C50012289005A50A97E002901D11A62D5
:10EB60001A600024731E2A69A34206D1019B002B60
:10EB700003D0802302219B00D15001231362130094
:10EB8000FC33D968002902D1996A0029F9D0996A21
:10EB900000290AD1D960A323DB00D1583800C9B2BB
:10EBA000013401F0D9FBA642DCD8019A2B69002A76
:10EBB00004D11A00FC32916A00290AD001210022F6
:10EBC000AA7659611900FC3188680028FCD08A6057
:10EBD00007E00121A976D961D16C0029FCD0002180
:10EBE000D164FC339A6A002A01D000229A62E0B212
:10EBF000FEBD10B50123FFF797FF10BD0300AC3336
:10EC000010B504001970643001F0B1FB0123637684
:10EC100010BD0000F8B500220D0001004276AC31B5
:10EC2000036904000878B121C90058508021890087
:10EC30005A5001321A629A6026006436300001F0A0
:10EC4000A8FB00280ED03000276901F094FB1E4B72
:10EC5000F8502369FC331A6A002A0CD19A6A002AF8
:10EC6000F9D008E02369002D0AD11A00FC32916A1C
:10EC7000002905D10EE09A6A002AF3D11A62DBE777
:10EC800001225A611A00FC3291680029FCD000214F
:10EC9000916006E00121D961D16C0029FCD00021EE
:10ECA000D1641A000020FC32916A81420BD00749DE
:10ECB00090625A5802305A50824204D0043A534269
:10ECC00053410230C01AF8BD1C050000C404000006
:10ECD00010B50121FFF79EFF10BD000010B51723EE
:10ECE000162202490248FFF7D5FE10BD0040004041
:10ECF000B424002070B506000C008D18AC4206D07C
:10ED000021783000FDF730FF20700134F6E770BD48
:10ED1000014B4160036070478C240020704770B540
:10ED200004000E0040680021150001F003F92100E5
:10ED300026726572022220680831FFF7DBFF01218D
:10ED4000606801F0F7F870BD70B504000D00406810
:10ED5000002101F0EFF8802321005B421D43257262
:10ED6000022220680831FFF7C5FF6068012101F029
:10ED7000E1F8607A70BD10B504000121406801F02F
:10ED8000BBF80121606801F0D5F82068FDF7D0FEDE
:10ED90000F212000FFF7D8FF14281AD14122182193
:10EDA0002000FFF7BCFF02221B212000FFF7B7FF66
:10EDB000D8221A212000FFF7B2FF012222212000D1
:10EDC000FFF7ADFF2000C1221821FFF7A8FF0020A8
:10EDD00001E00120404210BD70B54C00E11D05006E
:10EDE000FFF7B2FFA11D06002800FFF7ADFF3602B6
:10EDF000304300B204F056FC0022034B03F04EFEF9
:10EE000004F01EFD70BDC0460000103F0378D80717
:10EE1000C00FC0B282009807C00FDB06C0005B0FB6
:10EE200010431B0118437047F0B5002485B00090D3
:10EE3000029103920193019B9C422BD21B1B1A1C33
:10EE4000DBB2202B00D92022134D009B280019781B
:10EE5000D7B2FFF7D3FE029B2800E118C9B2FFF733
:10EE600000FE2800FFF734FF009B3A0019782800C5
:10EE7000FFF7BFFE0026A519EDB2BE4202DBE41982
:10EE8000E4B2D8E7039B04485D19FFF7E5FD0136BE
:10EE90002870F0E705B0F0BDB4240020F7B501AD4F
:10EEA0002A00042306210400FFF7BEFF6B8829888F
:10EEB0005BBA17489BB249BA584389B201F08CFD3E
:10EEC00004F032FC0022134B03F0C4F900F02AF9DD
:10EED0000022114B03F0BEF9104A114B02F08EFED6
:10EEE00002000B0000200F4903F0B4F90E4A0F4B4B
:10EEF00004F04EF8060060680F0004F04DFC0200BC
:10EF00000B003000390004F043F803B0F0BDC046F8
:10EF1000A0860100006AF8400068AA4083DBB5DCE7
:10EF2000E1796B3F0000F03F6666666666127140ED
:10EF300013B56B46DC1D22000123FFF775FF207817
:10EF400016BD70B500210400FFF7F2FF0125060091
:10EF5000C2102A400221AA40237B2E40AB433343F8
:10EF60008B4306112E40134304228E409343C20963
:10EF70002A4033430631D2008B4313432373EB40C3
:10EF80002B40180070BD70B500210400FFF7D0FFC2
:10EF900001210500227B0D408A43C3100B402A4308
:10EFA00002258B40AA431A43042305119A43C3093F
:10EFB00008200D40AD002A430B40DB0082431A437A
:10EFC00010002273084070BD13B50400FFF7B9FFAD
:10EFD00003000020834219D008236A462000022142
:10EFE000FFF722FF6B466A461B7852781B021343D9
:10EFF00063816B466A469B78D2781B021343238158
:10F000000123207B184001D06B46587916BD0000C3
:10F01000F8B50F001E001500084C01782000FFF71E
:10F02000EDFD39002000FFF71CFD32002900200013
:10F03000FFF7FAFC2000FFF74BFEF8BDB4240020D8
:10F0400037B5042405002200054901A804F037FE65
:10F050002800230001AAFF21FFF7DAFF37BDC046D1
:10F060001C6F020007B513006A46073213700123B4
:10F07000FFF7CEFF07BD07231C2219408B00417B01
:10F0800010B591431943040041730D30FFF7BEFEE4
:10F09000012102002000FFF7E5FF10BD0222437BA3
:10F0A00010B59343437304000D30FFF7AFFE012109
:10F0B00002002000FFF7D6FF10BD000010B50400CD
:10F0C00001701548FFF70CFD2000FFF7B9FF642021
:10F0D00000F0F4FE20212000FFF72AFF812801D054
:10F0E000002018E00023F4211A002000FFF790FF11
:10F0F000642000F0E3FE2000FFF745FF0028EFD179
:10F10000237B1B07ECD52000FFF7C8FF200001215F
:10F11000FFF7B1FF012010BDB424002010B500F0AE
:10F12000E9F810BDF0B5474680B48CB004000D007E
:10F1300000F09CF90F00002106003B4B32005956AD
:10F1400098463B00013111D02000290000F028FE34
:10F1500032003B00002809D00022002320002900B3
:10F1600001F0DAFD32003B00002805D01000190044
:10F170000CB004BC9046F0BD2C4B0A900393434660
:10F180001E780494059506940795002E18D1E02268
:10F19000274B120608920993200000220023290021
:10F1A00001F0A0FD00282BD00223029302A800F05A
:10F1B00025FE00281DD104F00DFD2223036018E078
:10F1C00000221C4B200008920993290000220023F2
:10F1D00001F088FD00281BD101230293022E11D1DA
:10F1E00004F0F8FC21230360134800F009FE0890A6
:10F1F00009910A9B0193002B0FD1089A099BB5E74F
:10F200000123029302A800F0F9FD0028ECD1E7E702
:10F2100002230293022ECED0C8E704F0DBFC0A9B47
:10F2200001930360E9E7C046A1200020946F02002B
:10F23000FFFFEFC70000F0FF9C6F0200F0B54746EC
:10F2400080B48CB004000D0000F012FB274B0600C8
:10F2500098461B780F005BB201330DD020002900C7
:10F2600000F09EFD002807D0002200232000290086
:10F2700001F03EFD002805D1300039000CB004BC7F
:10F280009046F0BD01230293194B06940795039312
:10F2900000230A934346049405951C78002C0FD153
:10F2A000002300240893099402A800F0A7FD002879
:10F2B00010D00A9B0193002B11D1089E099FDBE718
:10F2C000002200231000190002F0C4FF08900991E9
:10F2D000022CE9D104F07EFC21230360E9E704F06D
:10F2E00079FC0A9B01930360E7E7C046A120002058
:10F2F000986F0200F8B515004F4646465A001C00AC
:10F300006B42C0B42B434B4F5208DB0F884613436C
:10F31000BB423AD84B005B0899464E4643420343F2
:10F32000DB0F3343BB4230D8434BE3182B4343D06E
:10F330000226A3171E40CB0F1E434B4603432ED07D
:10F3400013002B4332D0BA4241D0B9452ED04B46A0
:10F350009A1A12153C2A32DC002C55DB2A002300B5
:10F3600002F078FF00F018FD00F078FB012E46D087
:10F37000022E39D0002E0ED0304A314B03F008FE59
:10F38000304A314B03F004FE05E002000B00280078
:10F39000210002F033FC0CBC90469946F8BD022EC9
:10F3A00010D0032EF7D127482849F4E743462548D3
:10F3B000002B0ADB2649EEE700F050FBEBE7214883
:10F3C0002349D3E71F482049E5E72249E3E7914570
:10F3D0001FD0022EF6D0032EE5D000200021012EF2
:10F3E000D9D180210906D6E7144A154B03F0D0FD88
:10F3F00002000B001348144903F0CAFDCBE7802438
:10F4000024060B191900C6E73C32A7DA00200021B8
:10F41000ACE7022E06D0032E09D00A48012E04D0F4
:10F420000D49B8E70D480E49B5E70E49B3E70B485B
:10F430000D49B0E70000F07F000010C0075C1433F6
:10F4400026A6A13C182D4454FB210940FB2109C0EC
:10F45000FB21F93FFB21F9BFFB21E93FD221337F9B
:10F460007CD90240FB21E9BF7CD902C0F0B55746E8
:10F470004E464546E0B4DA4A88B00B1E934255DC4E
:10F480004A005208024300D1EFE0002900DA79E196
:10F49000D44B002203F002FB3625D34C0B006D4207
:10F4A000A34247DC1A151B031B0B9846CF4C802345
:10F4B000A446CF4C5B0344442340CE4C62445219D3
:10F4C0005C4045461B1599462543CA4B290091448B
:10F4D000002203F05DFD434602331B0306000F00CC
:10F4E0001B0B0022022B2FDC002301F0FBFB00286A
:10F4F00000D1C1E04B46002B00D14CE1484604F05E
:10F50000D1F8BD4ABD4B04000D0003F0C7FABC4A58
:10F5100006000F00BB4B2000290003F0BFFA0200D9
:10F520000B003000390002F069FB07E0AE4C00250B
:10F53000A342B7DD02000B0002F060FB08B01CBC68
:10F5400090469946A246F0BD8023DB0502F056FBAB
:10F5500002000B003000390002F07CFE0400484637
:10F560000D0004F09FF82200029003912B00200070
:10F5700029000494059503F091FA04000D00A24BB4
:10F58000020043449A460B000094019503F086FA6A
:10F5900004000D009D4A9E4B03F080FA9D4A9E4B4D
:10F5A00002F02CFB22002B0003F078FA9B4A9C4BC4
:10F5B00002F024FB22002B0003F070FA994A9A4BC8
:10F5C00002F01CFB009A019B03F068FA974A009036
:10F5D0000191974B2000290003F060FA954A964B61
:10F5E00002F00CFB22002B0003F058FA934A944BD4
:10F5F00002F004FB22002B0003F050FA0B00020083
:10F600000098019902F0FAFA0D0041468D4B040072
:10F610005B1A51460B43002B54DD00228A4B30000D
:10F62000390003F03BFA32003B0003F037FA4B4657
:10F630000A00010000910192002B72D113002900F1
:10F640000200200002F0DAFA049A059B03F026FA81
:10F6500002000B000098019903F09AFC02000B00D5
:10F660003000390003F094FC68E7002200230020FA
:10F67000764902F0EFFD61E7754A764B30003900BC
:10F6800003F00CFA02000B0000206F4903F080FC2D
:10F69000320004000D003B003000390003F0FEF999
:10F6A0000B0002002900200003F0F8F94B4604008B
:10F6B0000D00002B72D102000B003000390003F066
:10F6C00067FC3BE74B46002B00D1C5E0029803994D
:10F6D000494A4A4B03F0E2F92200009001912B00C5
:10F6E0003000390003F054FC049A059B03F0D6F96E
:10F6F000434A04000D0002980399424B03F0CEF9EF
:10F7000002000B002000290003F042FC32003B0005
:10F7100003F03EFC02000B000098019903F038FC56
:10F720000CE7354A354B0298039903F0B7F9009A74
:10F73000019B069007912000290002F05FFA049ACD
:10F74000059B03F0ABF92E4A04000D0002980399C3
:10F750002C4B03F0A3F902000B002000290002F05B
:10F760004DFA02000B000098019903F011FC3200E1
:10F770003B0003F00DFC02000B000698079903F014
:10F7800007FCDBE602000B0003F002FC0022002372
:10F7900002F060FDD2E600200021CFE6484603F0EB
:10F7A00081FF154A154B0090019103F077F9144A37
:10F7B0000290039100980199124B03F06FF9020037
:10F7C0000B002000290003F0E3FB32003B0003F0B4
:10F7D000DFFB02000B000298039903F0D9FBADE6B2
:10F7E000FFFF0F0000005043FFFFEF7F01FCFFFF12
:10F7F000645F09000000F03F0000E0FE422EE63F9B
:10F80000763C7935EF39EA3D86EBF9FF44523EDF2D
:10F8100012F1C23FDE03CB966446C73F5993229450
:10F820002449D23F935555555555E53F9FC678D04D
:10F83000099AC33FAF788E1DC571CC3F04FA9799E2
:10F840009999D93F51B806000000E03F000050C32D
:10F85000555555555555D53F22002B0030003900E0
:10F8600003F096FB049A059B03F018F9F6E6C046F0
:10F87000F0B556464D4644465F46754BF0B40A0017
:10F880000D00190083B0060004002940994200D100
:10F89000BAE0002D00DC94E02D1500D1A3E06D4B03
:10F8A00012039C468023120B5B0365441A43EB074B
:10F8B00000D581E06B109846E30F9B189B188022BF
:10F8C00016210026002764009203B818984202DC33
:10F8D00087181B1AB618E00F5B0001391B1864006B
:10F8E00052080029F1D1002201929446802212068A
:10F8F0002020914609E09F4241D0E10FC91801380C
:10F90000CB186400520800281ED0614651189F424F
:10F91000F1DA8D18AC46CD0FED07BA464D4539D01A
:10F92000DB1B8C42BF417F42DB1B641A019901380B
:10F930008B46934459460191E10FC9185746CB189D
:10F94000640052080028E0D123432BD1019B5B08BF
:10F95000414972108C466244F10702D580210906A4
:10F960000B43414609058D181E002F003000390059
:10F9700003B03CBC90469946A246AB46F0BDA142BE
:10F980000ED88D18AC46CD0FED074D4548D09A46A0
:10F990000023CAE76546002DC2DB7D1CAA46BFE7EF
:10F9A0003B00AAE7019B01333ED0019A0123944614
:10F9B000134063445B08CBE7E30F52009A186400DE
:10F9C00078E76B005B0803432F00002BCED00025A7
:10F9D000002A31D1E20A153D6405002AFAD08023BD
:10F9E0005B031A4223D180200023400300E00B0078
:10F9F0005200591C0242FAD02020401AED1A23006E
:10FA0000C3408C401A434AE702002B00290003F050
:10FA100045F832002B0002F0F1F806000F00A5E7D0
:10FA20006546002DB3DBB8E70136002390E70123DC
:10FA300020205B420021E1E73B000200390003F097
:10FA4000A7FA02000B0002F005FC06000F008DE78C
:10FA50000000F07F01FCFFFF0000E03FF8B55646D4
:10FA60004D4644465F46A54BF0B44E00804689465D
:10FA70008A4676089E420CDDA14B9E4200DDA0E046
:10FA800000D19BE05346002B00DCE3E09D4B9E4AF7
:10FA90009FE09E4B9E4200DDB1E09D4B9E4200DC0C
:10FAA0009FE001235B429B4642464B464046494607
:10FAB00002F0F4FF02000B0006000F0002F0EEFF60
:10FAC00004000D00934A944B02F0E8FF934A944BD4
:10FAD00002F094F822002B0002F0E0FF914A924BD2
:10FAE00002F08CF822002B0002F0D8FF8F4A904BD6
:10FAF00002F084F822002B0002F0D0FF8D4A8E4BDA
:10FB000002F07CF822002B0002F0C8FF8B4A8C4BDD
:10FB100002F074F832003B0002F0C0FF894A8A4BC1
:10FB200006000F002000290002F0B8FF874A884B2A
:10FB300003F02EFA22002B0002F0B0FF854A864B1C
:10FB400003F026FA22002B0002F0A8FF834A844B20
:10FB500003F01EFA22002B0002F0A0FF814A824B24
:10FB600003F016FA22002B0002F098FF0B00594612
:10FB70000200013100D170E059463000CC0039005C
:10FB800002F03CF842464B4602F088FF774D784B36
:10FB90002D191C192268636803F0FAF942464B4696
:10FBA00003F0F6F902000B002868696803F0F0F929
:10FBB00053460A00002B48DB03000AE0002800D16E
:10FBC00060E742464B464046494602F017F80300BC
:10FBD0000A00180011003CBC90469946A246AB466C
:10FBE000F8BD644A644B02F009F80022634B01F04F
:10FBF00093F8002800D154E743464A46E9E700F06D
:10FC0000CBF85F4B04000D009E4237DC5D4B9E42FB
:10FC10005DDC02000B0001F0F1FF0022574B03F006
:10FC2000B7F9802306000F000022DB052000290021
:10FC300001F0E4FF0B0002003900300002F00AFB83
:10FC40000023804689469B462EE780221206030049
:10FC50008A18BEE72B4B4C4ABBE73000390001F055
:10FC6000CDFF42464B4602F019FF02000B00404612
:10FC7000494603F08DF903000A00AAE7434B9E4270
:10FC80001ADC0022424B03F083F9002206000F0029
:10FC90003F4B2000290002F001FF0022374B01F00A
:10FCA000ADFF0B0002003900300002F0D3FA02234E
:10FCB000804689469B46F7E60B0002003549002046
:10FCC00002F0C8FA0323804689469B46ECE60022F0
:10FCD0002A4B03F05DF9002206000F00274B20009D
:10FCE000290001F08BFF0B0002003900300002F008
:10FCF000B1FA0123804689469B46D5E6FFFF0F44B3
:10FD00000000F07F182D4454FB21F93FFFFFDB3F3B
:10FD1000FFFF1F3E11DA22E33AAD903FEB0D762450
:10FD20004B7BA93F513DD0A0660DB13F6E204CC525
:10FD3000CD45B73FFF8300922449C23F0D5555552D
:10FD40005555D53F2F6C6A2C44B4A2BF9AFDDE52A4
:10FD50002DDEAD3F6D9A74AFF2B0B33F711623FE46
:10FD6000C671BC3FC4EB98999999C93FC06F020016
:10FD7000A06F02009C7500883CE4377E0000F03FD5
:10FD8000FFFFF23FFFFFE53FFB21F9BFFF7F03408D
:10FD90000000F83F0000F0BF49004B081900704711
:10FDA0000A000300024330B50220002A00D130BD12
:10FDB00080221206914216D00C4A0D4C8A1804205B
:10FDC000A242F4D90B4A8A18A242F0D90A4A490041
:10FDD000490803209142EAD9064A00209142E6D11F
:10FDE00058425841E3E7002BE1D0EFE70000F0FF75
:10FDF000FFFFDF7F0000F07FFFFF0F000020704754
:10FE0000002001497047C0460000F87F03210A48DE
:10FE100002680A430260094802680A43026008490E
:10FE2000084A094B9B1A03DD043BC858D050FBDC41
:10FE300000F096F8FBF79EF92405004054050040B9
:10FE40008C7402008020002060210020FEE7FEE785
:10FE5000FEE7FEE7FEE7FEE7084A0949094B10B551
:10FE60001B688858FA22190A1B06184392000023BF
:10FE700000F0C4FF4904C00B084310BD0405000096
:10FE8000001001406C250020084B094A09491B68F5
:10FE90008858190A1B0610B51843074A002300F0BA
:10FEA000ADFF4904C00B084310BDC0466C250020BF
:10FEB000040500000010014040420F0070B5041E10
:10FEC00009D0FFF7C9FF050000F014F8FFF7C4FFE1
:10FED000401B8442F8D870BD0022044B9A60044A4B
:10FEE00013680133DBB213607047C046FC10014059
:10FEF0006C2500207047000000B51C2816D80C4A5D
:10FF000083009B58032911D8A0220800C133FF3376
:10FF1000D2059B0000F056FD02080406002104E013
:10FF20000C2102E0042100E00321D15000BDC046B5
:10FF3000206F02001C280DD8074B8000C058A0225B
:10FF40000123D2058340002901D1044901E0A12108
:10FF5000C90053507047C046206F02000C050000D6
:10FF60002D4B10B51A78012A19D12C4A12681207A4
:10FF700015D12B4AE0241168F022080010402142DC
:10FF80000BD128490968114209D12749274A116034
:10FF90008021274A0902116001E03028F1D01A7847
:10FFA000012A0DD11D490968090709D1F0201C4912
:10FFB00009680140402903D11A490968014223D048
:10FFC0001B68DBB2012B25D1144B1B681B0721D109
:10FFD000134B1A68F0231A40A02A04D1114A126860
:10FFE0001A4203D016E0D02A14D1F7E7114B1A6851
:10FFF000012A03D1C022104B1A600BE00F4A1A608D
:020000022000DC
:100000001A68012AFCD1F5E7C1218020C900C0058A
:100010004250D5E710BDC046E00F00F0E40F00F0FD
:10002000E80F00F0EC0F00F0DFFF07C00405004010
:10003000186C004000EC064014EC0640759300007C
:10004000F7B506000D000C008B180193019B671B90
:100050009C4207D0336821781B68300098470134F0
:100060000028F3D13800FEBD70B505000C00081E55
:1000700007D004F0AFFC2B6802005B682100280069
:10008000984770BD10B5FFF7EFFF10BD10B50368BE
:100090008A685B680968984710BD10B5FFF7E4FFF0
:1000A00010BD10B503681B68984710BD10B5024914
:1000B000FFF7DAFF10BDC046E06F020070B5040024
:1000C000FFF7E4FF05002000FFF7F0FF281870BDE0
:1000D00070B50500FFF7C8FF04002800FFF7E6FF32
:1000E000001970BD10B5FFF7F3FF10BDF0B5160095
:1000F00000228DB002AB053301900D00DA77012E9E
:1001000000D80A260BAC2800310000F0EBFC0F00F1
:10011000CBB228003100009300F05EFCFBB2373315
:100120000500013CDBB2092F02D8009B3033DBB263
:100130002370002DE7D121000198FFF795FF0DB046
:10014000F0BD10B5002A04D10368C9B21B689847F6
:1001500002E0D2B2FFF7CAFF10BD10B5FFF7F1FF02
:1001600010BDF8B506000C00151E04D10368C9B215
:100170001B68984714E0D2B20A2D0DD12A0000293D
:100180000ADA2D21FFF78DFF614207002A003000B7
:10019000FFF7ACFF381803E021003000FFF7A6FF9F
:1001A000F8BD10B5FFF7DDFF10BD70B50500FFF716
:1001B000D8FF04002800FFF779FF001970BD000088
:1001C000F0B51E0085B00AAB1B78310005001000A9
:1001D00017000293FFF7E4FD4549002806D03800D8
:1001E0003100FFF7DDFD012804D142492800FFF767
:1001F0003BFF7BE0E022404B12063800310000F06C
:100200008BFD002801D03D49F0E7E0223C4B12066F
:100210003800310000F06CFD0028F4D100220023EA
:100220003800310000F064FD002808D02D2128009E
:10023000FFF737FF80231B060190F61800E00190BE
:10024000002400202F49029BA34206D000222E4BFF
:10025000013401F0FFFFE4B2F5E733003A0001F0AA
:10026000CDFC0F00060000F00DFE0A2203900100F5
:100270002800FFF73BFF019BC418029B2000002BC6
:1002800034D0039803F050FA0B000200390030001C
:1002900002F07EFE06000F0028001C49FFF7E4FE76
:1002A0002318029C0193184B00223000390002F001
:1002B000F5FB0F00060003F0BFF90A2201000290CF
:1002C0002800FFF74EFF019B013C1B180298019389
:1002D00003F0E8F902000B003000390002F058FE8C
:1002E000E4B206000F00002CDDD1019805B0F0BD8E
:1002F000E36F0200E76F0200FFFFEF41EB6F0200C8
:10030000FFFFEFC10000E03F00002440966B0200B9
:1003100037B51D00069BDBB200932B00FFF750FFA3
:100320003EBD37B519000500069B2800DBB20093DF
:100330000B00FFF745FF04002800FFF7B7FE001988
:100340003EBD10B540220021040003F0C1FC002393
:1003500020002364636410BD3F23026C10B5541C5D
:100360002340446C9C4201D08154036410BD00239F
:10037000036443647047436C026C934206D03F2190
:10038000C25C01330B404364100001E00120404295
:100390007047036C406C181A00D540307047436CAE
:1003A000026C934201D0C05C01E0012040427047E2
:1003B000036C406C5A1C3F231340181A42424241BE
:1003C000D0B270470120704710B503681322DB6973
:1003D000984710BD704700000369054A9950FC33E7
:1003E0001A6A002AFCD0002201201A627047C04617
:1003F0001C050000030010B55C331A781F2313405E
:100400000122110099400D4B0424D967C2210369D0
:1004100089005C505A60DA60A0220021D200995015
:100420000122074952425A50064914305A500C3999
:100430005A5008315A50FFF79AFF10BD04E100E00E
:100440000C0500001405000010B51430FFF7A1FFE3
:1004500010BD10B51430FFF7A2FF10BD10B5143059
:10046000FFF789FF10BD0000030070B55E331C78F4
:100470000269604BD45003005D331C785E4BD4504E
:10048000030061331C785D4B012C0CD105005F35F6
:100490002E78A225ED005651050060352E78A12555
:1004A000ED00565100E00024D4509623DB00994221
:1004B00038D996231B01994237D996235B0199427B
:1004C00036D996239B01994234D9E1239B01994265
:1004D00032D99623DB01994231D9E123DB019942DC
:1004E0002FD996231B0299422DD9E1231B02994251
:1004F0002BD996235B02994229D9E1235B029942C9
:1005000027D9E1239B02994225D93D4B994224D911
:10051000E123DB02994223D9E1231B03994221D82D
:10052000384B21E09E23DB021EE09D231B031BE0D2
:10053000354B19E0354B17E0EC239B0314E0344BAB
:1005400012E0344B10E0344B0EE0344B0CE0344BF3
:100550000AE0344B08E0344B06E08023DB0403E080
:10056000324B01E080235B053149002453500423C2
:10057000243953501100FC31CC600C62C12101348C
:10058000890014605C309460535003781F2022006F
:10059000D9B20840824080342648FF345BB2025111
:1005A000002B13DA0F230B40083B234C9B089B00C6
:1005B0001B1903242140A140FC348C40DD69A54374
:1005C000C0248C4021002943D96111E0194C9B08BB
:1005D0009B001B1903242140A140C025FC348C4002
:1005E000AD005E59A643C0248C40210031435951CF
:1005F000026070BD0C050000140500006C050000D1
:1006000090D0030000D0BE0E00B0130000502700B1
:1006100000A04E0000F0750000509D0000F0EB00BF
:1006200000903A0100E0D70100B0AF0300705F070F
:100630002405000000E100E000ED00E0F7B50093C4
:1006400008AB1B7800250193FA2304009B0083600C
:100650000E4B45600833036014300F001600FFF79F
:1006600070FE23005C3327611E70009B084A9B00CC
:10067000995823005D331970019B20009B009A5804
:1006800023005E33DD701A70FEBDC046F06F0200BD
:10069000206F0200036910B51A00FC32D268040012
:1006A000002A0AD0A322D20099581430C9B2FFF709
:1006B00053FE00222369FC33DA6010BD10B50248F6
:1006C000FFF7E8FF10BDC04670250020122307B5D4
:1006D000022200930249013B0248FFF7AFFF07BD2A
:1006E000002000407025002010B50400006803F0D1
:1006F000CDFA200010BD10B504000068002801D01C
:1007000003F0C4FA00232360A360636010BD70B5DA
:1007100004000D000068013104F02EF9031E01D021
:10072000012028C470BD036810B50400002B02D05E
:1007300043688B4209D22000FFF7E9FF002805D06B
:10074000A368002B01D122681370012010BD70B581
:100750000E00110004001500FFF7E5FF002803D18B
:100760002000FFF7C8FF04E0A5603100206804F016
:1007700029F9200070BD002370B504000D1E036030
:10078000436083609D4207D0080004F023F92900EC
:1007900002002000FFF7DBFF200070BD70B50500F0
:1007A00000680C0000280CD06B688A68934206D35E
:1007B000096804F007F9A368AB6000230AE003F0BE
:1007C00065FA23682B6063686B60A368AB600023E5
:1007D00023606360A36070BD10B5041E8C4201D01D
:1007E000FFF7DCFF200010BD70B504000D1E08D01F
:1007F000080004F0EFF8290002002000FFF7A7FF2F
:1008000001E0FFF778FF200070BD1FB50400002352
:10081000080023606360A36001A904F05DFA01A9E8
:100820002000FFF7E1FF200004B010BD002313B546
:10083000040001AA117003604360836011005370CB
:10084000FFF7D2FF200016BDF8B504000F1E01D13E
:10085000002610E00126002A0DD08368D518290053
:10086000FFF761FF0028F3D02368A26839009818C9
:1008700004F0A8F8A5603000F8BD10B58A680968D2
:10088000FFF7E2FF10BD70B505000C00081E06D092
:1008900004F0A0F8210002002800FFF7D5FF70BD8A
:1008A00010B58A6809680400FFF7CEFF002802D15E
:1008B0002000FFF720FF200010BD70B50D00002ABA
:1008C00014D0002912D08168994202D800232B70DD
:1008D0000CE0541EC91A8C4200D90C000168220099
:1008E000C918280004F07DF800232B5570BD0000C6
:1008F000F7B507000E0015001C009A4201D925002B
:1009000014000D493800FFF736FFB3689D4211D23D
:100910009C4200D91C00336838001B191A780192D8
:1009200000221A7033685919FFF75EFF6A46336870
:1009300012791A553800FEBD236B0200FEE770479E
:1009400010B500F015F8FFF7FAFF0120FFF7B6FA2F
:10095000FBF754FFFBF78EFE024B002BFAD000E0B2
:1009600000BFF7E70000000010B503F08FF910BDDD
:10097000C421114A89005058104B0340C020000286
:1009800003435350802391399B02FF395350136026
:10099000A321802301220020DB05C9005A509A6060
:1009A000074B10395850C1200221800019504030A7
:1009B00019501A607047C04600E100E0FF00FFFFD9
:1009C0000010014002B4714649084900095C490021
:1009D0008E4402BC7047C046002243088B4274D349
:1009E00003098B425FD3030A8B4244D3030B8B4230
:1009F00028D3030C8B420DD3FF22090212BA030C39
:100A00008B4202D31212090265D0030B8B4219D319
:100A100000E0090AC30B8B4201D3CB03C01A524139
:100A2000830B8B4201D38B03C01A5241430B8B4281
:100A300001D34B03C01A5241030B8B4201D30B036A
:100A4000C01A5241C30A8B4201D3CB02C01A524191
:100A5000830A8B4201D38B02C01A5241430A8B4254
:100A600001D34B02C01A5241030A8B4201D30B023D
:100A7000C01A5241CDD2C3098B4201D3CB01C01A57
:100A8000524183098B4201D38B01C01A5241430961
:100A90008B4201D34B01C01A524103098B4201D34F
:100AA0000B01C01A5241C3088B4201D3CB00C01ABC
:100AB000524183088B4201D38B00C01A5241430834
:100AC0008B4201D34B00C01A5241411A00D2014659
