:020000021000EC
:10B000000040002091F00100D1F00100D3F00100D8
:10B010000000000000000000000000000000000030
:10B02000000000000000000000000000D5F001005A
:10B030000000000000000000D7F00100D9F001007E
:10B04000DBF00100DBF0010039F90100DBF0010069
:10B05000DBF0010000000000DBF00100DBF001008C
:10B06000DBF00100DBF00100DBF00100DBF00100B0
:10B07000DBF00100DBF00100DBF00100DBF00100A0
:10B08000DBF001005DF10100DBF00100DBF001000D
:10B09000DBF00100DBF00100DBF00100DBF0010080
:10B0A000DBF00100DBF00100000000000000000008
:10B0B0000000000000000000000000000000000090
:10B0C000054B0648033310B51B1A062B03D9044B56
:10B0D000002B00D0984710BD602100206021002087
:10B0E000000000000648074910B5091A8910CB0F67
:10B0F0005918491003D0044B002B00D0984710BDBD
:10B1000060210020602100200000000010B5074CE5
:10B110002378002B09D1FFF7D3FF054B002B02D07A
:10B12000044800E000BF0123237010BD602100200F
:10B130000000000078630200094B10B5002B03D01B
:10B140000849094800E000BF08480368002B02D105
:10B15000FFF7C8FF10BD064B002BF9D09847F7E763
:10B160000000000064210020786302005C210020C0
:10B1700000000000164B002B00D1144B9D464022CE
:10B1800092029A1A924600218B460F461348144A9F
:10B19000121A07F095FD0F4B002B00D098470E4B6D
:10B1A000002B00D098470020002104000D000D481E
:10B1B000002802D00C4800E000BF07F02FFD20005F
:10B1C000290004F0DFFC07F003FDC0460000080082
:10B1D000004000200000000000000000602100206E
:10B1E000D42500200000000000000000043070475B
:10B1F00010B50400054B0722083308C007F057FDBF
:10B20000230000222C3320001A7010BD00580200C9
:10B2100073B50400036801AD1E692A000123D02123
:10B22000B0472B782B34582B01D0602B02D12370E0
:10B23000012001E00020207076BD10B544790C702B
:10B2400001794C01817989002143C479214311702E
:10B25000027A5101427A92000A43817A0A431A70B3
:10B2600010BDF7B56B4604009E1D5F1DDD1D2B0054
:10B2700032003900FFF7E1FF23683A78DB68F221FA
:10B280002000984723683278DB68F4212000984733
:10B2900023682A78DB68F52120009847FEBD10B5A9
:10B2A00004000722043007F002FD2000FFF7D9FF59
:10B2B00010BD020070B5040003680B321D698821BF
:10B2C0000623A8472200236805001E6911321223B5
:10B2D0008E212000B0472200236805401E692332DA
:10B2E0000123A1212000B04722002368EDB20540D0
:10B2F0001E6924320723E1212000B047284070BD99
:10B3000070B50400FFF784FF051E06D02000FFF78C
:10B31000D0FF05002000FFF7A4FF2C342800257083
:10B3200070BD2D30704770B50D00040008222D301F
:10B3300007F0BDFC29002000FFF7B1FF70BD000041
:10B3400070B504000D00FFF753FF2000044B2900E7
:10B350000833236008222D3007F0A9FC200070BDBF
:10B360001C58020070B50E001500094C34300178ED
:10B37000200003F0A1F93100200003F0D0F82900EB
:10B38000200003F0CCF8200003F000FA012070BD8B
:10B39000A4240020F7B50F0034301E000500134C24
:10B3A00001920178200003F087F93900200003F0B2
:10B3B000B6F8200003F0EAF929783200200003F003
:10B3C00076F90025200003F0A0F8002809D0019BA1
:10B3D00020006F1C5D1903F09DF8FFB228703D003E
:10B3E000F0E7A81B45426841C0B2FEBDA42400207E
:10B3F000F0B5294E87B033780C00002B03D02749D5
:10B40000274803F081FF23682000DB689847236802
:10B4100005001B692000984722490700684604F090
:10B42000E8FAEF19BD420DD02978102203A804F0E4
:10B430002AFB03A9684604F050FB03A804F092FA23
:10B440000135EFE710220021009808F067FB164F46
:10B4500033783860002B09D0114D1449280003F0CF
:10B460005EFF0A223968280003F0DDFF2368200010
:10B47000DB689847236805001B6920009847010096
:10B48000280001F06DFE012003F05AFE684604F02A
:10B4900069FA07B0F0BDC046A02000206C58020039
:10B4A00060250020EE5A0200C423002099580200B3
:10B4B000F0B50B680D00A3B00800DB6898472B6857
:10B4C00004001B69280098471149050019A804F0D9
:10B4D00090FA6519AC421FD0217810221CA804F004
:10B4E000D2FA1E9B012B0AD10A491FA804F081FA47
:10B4F0001FA919A804F0F1FA1FA804F033FA1CA937
:10B5000019A804F0EAFA1CA804F02CFA0134E1E7C7
:10B51000EE5A0200565A0200ED4B1B78002B08D061
:10B52000EC4CED49200003F0FAFE19A9200003F0CD
:10B5300007FF0223002219A91FA804F0FBFA002329
:10B5400003220CA91FA804F0DBFA1FA804F00AFAD2
:10B550000423022219A91FA804F0ECFA00230322F5
:10B560000DA91FA804F0CCFA1FA804F0FBF90623CC
:10B57000042219A91FA804F0DDFA002303220EA952
:10B580001FA804F0BDFA1FA804F0ECF90823062256
:10B5900019A91FA804F0CEFA002303220FA91FA89F
:10B5A00004F0AEFA1FA804F0DDF90A23082219A955
:10B5B0001FA804F0BFFA0023032210A91FA804F05B
:10B5C0009FFA1FA804F0CEF90C230A2219A91FA87C
:10B5D00004F0B0FA0023032211A91FA804F090FA86
:10B5E0001FA804F0BFF90E230C2219A91FA804F00C
:10B5F000A1FA0023032212A91FA804F081FA1FA8B0
:10B6000004F0B0F910230E2219A91FA804F092FA31
:10B610000023032213A91FA804F072FA1FA804F044
:10B62000A1F91223102219A91FA804F083FA0023FC
:10B63000032214A91FA804F063FA1FA804F092F9CA
:10B640001423122219A91FA804F074FA002303225C
:10B6500015A91FA804F054FA1FA804F083F91623B3
:10B66000142219A91FA804F065FA0023032216A9C1
:10B670001FA804F045FA1FA804F074F91823162235
:10B6800019A91FA804F056FA0023032217A91FA81E
:10B6900004F036FA1FA804F065F91A23182219A934
:10B6A0001FA804F047FA0023032218A91FA804F0DA
:10B6B00027FA1FA804F056F91C231A2219A91FA85B
:10B6C00004F038FA002303221CA91FA804F018FA7A
:10B6D0001FA804F047F9102200210CA808F01EFA58
:10B6E0001022070000210DA808F018FA102204000B
:10B6F00000210EA808F012FA1022060000210FA85F
:10B7000008F00CFA10220290002110A808F006FAA6
:10B7100010220390002111A808F000FA10220490D2
:10B72000002112A808F0FAF910220590002113A8B0
:10B7300008F0F4F910220690002114A808F0EEF9A0
:10B7400010220790002115A808F0E8F910220890AF
:10B75000002116A808F0E2F910220990002117A88C
:10B7600008F0DCF910220A90002118A808F0D6F998
:10B77000102200210B901CA808F0D0F905F09AFACD
:10B78000051C642047433C19E00F04196410200095
:10B790003C3005F08FFA514B1860300005F08AFA02
:10B7A0004F4904F0CBFF041C029805F083FA011CFA
:10B7B000201C04F083FCFC21890504F0BFFF4949EB
:10B7C00004F07CFC484B1860039805F073FA444978
:10B7D00004F0B4FF041C049805F06CFA011C201C52
:10B7E00004F06CFC414904F0DFFD414905F0BAF872
:10B7F000404B1860059805F05DFA394904F09EFF4A
:10B80000041C069805F056FA011C201C04F056FC96
:10B81000364904F0C9FD364905F0A4F8364B1860E6
:10B82000079805F047FA2E4904F088FF041C089891
:10B8300005F040FA011C201C04F040FC2B4904F0E8
:10B84000B3FD2E4B1860099805F034FA244904F032
:10B8500075FF041C0A9805F02DFA011C201C04F049
:10B860002DFC224904F0A0FD254B1860184B1A78D6
:10B870001E00002A10D0174C2249200003F04FFD73
:10B880000B9805F017FA07F069F80B000221020087
:10B890000091200003F083FE3378002B0ED00D4C76
:10B8A0001949200003F03BFD281C07F057F80B0056
:10B8B000022102000091200003F071FE281C05F017
:10B8C000D7F9124B186019A804F04CF823B0F0BD5A
:10B8D000A020002060250020A7580200882000201A
:10B8E0000000C84200007042982000200000704113
:10B8F0000000A040942000209C2000204022002036
:10B900008C200020B3580200C4580200842000207C
:10B9100001220A4B70B51A60094B05001B78002BF9
:10B920000BD0084C0849200003F0EEFC280000F082
:10B93000EDFE0100200003F00DFD70BDC4230020CA
:10B94000A020002060250020D558020000220A4BCC
:10B9500070B51A60094B05001B7893420BD0084C58
:10B960000849200003F0D0FC280000F0CFFE0100C1
:10B97000200003F0EFFC70BDC4230020A0200020B5
:10B9800060250020F058020010B50400024B03604F
:10B9900000F004FF200010BD485C020010B5040058
:10B9A000FFF7F2FF200004F001F9200010BD0000B5
:10B9B00010B50400024B0360FFF7E6FF200010BD46
:10B9C0004458020010B50400FFF7F2FF200004F015
:10B9D000EDF8200010BD0000F0B57F4D89B00021CA
:10B9E000280002F057FF7D4904F0A8FE7C4C01219D
:10B9F0002060280002F04EFF784904F09FFE0221EB
:10BA00006060280002F046FF744904F097FE0021B0
:10BA1000A060280002F03EFF01210290280002F001
:10BA200039FF0221041C280002F034FF211C051CF0
:10BA3000201C04F083FE291C061C281C04F07EFE3A
:10BA4000011C301C04F03AFB06F088FF02F040FFB6
:10BA500006000F00029806F081FF32003B0002F062
:10BA600033FF604A604B06F0FBF880235F4E1B06F5
:10BA700030607160E81806F071FF80231B060290A9
:10BA80000391E01806F06AFF029A039B02F01CFF84
:10BA9000544A554B06F0E4F80022029003913068B6
:10BAA0007168534B05F08CF90022524B04000D00D5
:10BAB00004F040FA0022002805D04F4B2000290056
:10BAC00005F07EF904E04B4B2000290006F042FB14
:10BAD00030607160029803990022454B05F070F9BF
:10BAE000029003910A000100444B19605A600298C9
:10BAF00003990022424B04F01DFA0022002805D0D1
:10BB0000306871683F4B05F05BF904E03C4B3068EE
:10BB1000716806F01FFB0A22306071603A4B3B49A6
:10BB20001A600868496833687468049305941A00B9
:10BB3000230006F00FFB07900022002307980C005B
:10BB40000D0004F00BFA002802D180231B06E51833
:10BB50002F49029A039B0868496806F0FBFA002205
:10BB600000230F0004000E0004F0F8F9002802D1B1
:10BB700080231B06FE18220033000798290005F0D9
:10BB80001FF906F03FFF0499059A224B18601F4BDE
:10BB900019605A600299039A1D4B19605A601E4B36
:10BBA0001B78002B15D01D4C1D49200003F0B7FB5E
:10BBB00003F094FA05F0C6F81A4B196804F0D2FEA7
:10BBC00006F0CCFE0B00022102000091200003F0E1
:10BBD000E6FC09B0F0BDC0468821002000002041ED
:10BBE000A821002046DF617EDCA54C4030240020E7
:10BBF0000080664000003E4000A07440E821002024
:10BC000000004E4000C07240DC230020C82300200A
:10BC1000D0230020B42100208021002060250020B6
:10BC2000635902001822002070B58AB002A8594951
:10BC300000F0C2FF02A800F058FD002800D18DE0FE
:10BC4000554B56491C68201C04F0AEF9002807D15A
:10BC50005349201C04F0BCF9002802D0514C00E0EC
:10BC60004E4C4E49201C04F07DFE4F4904F066FD09
:10BC70004E4B061C1D684949281C04F095F92C1CE4
:10BC8000002800D0454C4649281C04F0A1F90028A2
:10BC900000D0444C4149201C04F064FE05AC142241
:10BCA000051C0021200007F00BF8301C04F0D0F92F
:10BCB0003D492070281C04F041FD04F0C9F93C4BBB
:10BCC0003C496070186804F039FD04F0C1F9FE21A8
:10BCD000394DA0708905286804F0F0F9374904F05F
:10BCE0002DFD04F0B5F9FE2120718905686804F086
:10BCF000E5F9324904F022FD04F0AAF9FE21607151
:10BD00008905A86804F0DAF92C4904F017FD04F05D
:10BD10009FF92B492B4A2C4BA0710868496805F004
:10BD20007BFB04F0ADF92949264A274BE0710868EE
:10BD3000496805F071FB04F0A3F9254B1F492072F7
:10BD4000186804F0FBFC04F083F9142260722100EF
:10BD5000204800F03AFD012003F0F2F91E4B1B7859
:10BD6000002B15D01D4C1E49200003F0D8FA03F01B
:10BD7000B5F904F0E7FF1B4B196804F0F3FD06F07A
:10BD8000EDFD0B00022102000091200003F007FCF2
:10BD90000AB070BD44220020C023002000008C4265
:10BDA0000000DE420000DC420000C04014220020FF
:10BDB0008421002000002041A82100200000C8426A
:10BDC00030240020666666666666F63FE82100203D
:10BDD000E0210020F02100208021002060250020AB
:10BDE0008759020018220020F7B5444C444920002E
:10BDF00003F095FA434E0225306806F0AFFD00953A
:10BE000002000B00200003F0C1FB3F4F200039006F
:10BE100003F085FA706806F0A1FD009502000B00A2
:10BE2000200003F0B3FB3900200003F078FAB0687B
:10BE300006F094FD009502000B00200003F0A6FB25
:10BE40003249200003F086FA3149200003F067FAF6
:10BE5000304B186806F082FD009502000B002000B0
:10BE600003F094FB2C49200003F059FA2B4B18687F
:10BE700006F074FD009502000B00200003F08FFB1C
:10BE80002749200003F04BFA264B186806F066FDA0
:10BE9000009502000B00200003F081FB22492000E6
:10BEA00003F03DFA214B186806F058FD009502009A
:10BEB0000B00200003F06AFB1D4E2000310003F050
:10BEC00049FA1C49200003F02AFA1B4B186806F0B7
:10BED00045FD009502000B00200003F057FB3100E8
:10BEE000200003F037FA1549200003F018FA144B2C
:10BEF0000A221968200003F096FAF7BD6025002099
:10BF0000A3590200A8210020AF590200C860020016
:10BF1000B4590200C0230020B959020014220020A5
:10BF2000C2590200E0210020D45902004022002022
:10BF3000E3590200E85902008C200020F859020061
:10BF40008420002073B5FA20394B8000196803F073
:10BF5000EFFE04F0AFFE374B374D1860FF2328008B
:10BF60001A00190000F0CAFF344C3549220028009D
:10BF700006F0F2FD3349344801F08DF8334D0222CA
:10BF80003349280001F090F8324E22003100280099
:10BF900006F0E2FD304D08223049280001F084F817
:10BFA00022003100280006F0D7FD2D4E1423122266
:10BFB0002C49300000F020FC2B4D220029003000DD
:10BFC00006F0CAFD294E142312222949300000F040
:10BFD00013FC22002900300006F0BEFD254E14237C
:10BFE00008222549300000F007FC2200290030001B
:10BFF00006F0B2FD01256B466A461D705D709D70AE
:10C00000DD7005231371013B537100236946937161
:10C010001A487633D371FFF793F9194E290030008F
:10C0200002F0D4FB30002200164906F095FD73BDE6
:10C03000902000207C21002044220020802000202D
:10C0400061CE0100535A0200A0210020BC21002033
:10C05000585A0200B1B901001C2200205D5A0200AA
:10C06000F0210020625A02009DC70100E423002055
:10C07000675A0200082400206C5A0200382400206D
:10C0800088210020D9E7010070B50500164C002179
:10C09000200002F011FB2900200002F040FA0120EC
:10C0A00003F04EF80021200002F012FB03220021D1
:10C0B000200002F0FCFA012003F042F8200002F018
:10C0C00029FA0500200002F025FA0600012003F0FD
:10C0D00037F8200002F01EFA012003F031F8300298
:10C0E0000543A8B270BDC046A424002010B5FFF7D8
:10C0F000CBFF04F027FE06F031FC074A074B05F0A2
:10C10000AFFD06F07FFC06F029FC054A054B06F062
:10C1100021F806F077FC10BD7B14AE47E17A943F1E
:10C12000666666666612714010B52720FFF7DEFF6F
:10C13000064904F003FB064904F036F98421C905D9
:10C1400003F0BCFF06F00AFC10BDC0460000104121
:10C150000000A04010B52620FFF7C8FF064904F0F4
:10C16000EDFA064904F020F98421C90503F0A6FF81
:10C1700006F0F4FB10BDC046000010410000A040D6
:10C1800013B5FFF7E7FF06F03DFC114B1860FFF712
:10C19000CBFF06F037FC0F4B18600F4B1B78002BC2
:10C1A00015D00E4C0E49200003F0B9F802F096FFAE
:10C1B00004F0C8FD0B4B196804F0D4FB06F0CEFB6D
:10C1C0000B00022102000091200003F0E8F913BDEA
:10C1D00014220020C02300208021002060250020A0
:10C1E000715A02001822002073B54E4B4E4C19684C
:10C1F000206803F063FF051C02F070FF04F0A2FD4D
:10C20000011C281C03F0D0FE002800D188E002F0B9
:10C2100065FF04F097FD454B20601B78002B19D07B
:10C22000434D4449280003F095F84349280003F0A2
:10C2300076F82068414904F0B7F806F08FFB0B0050
:10C24000022102000091280003F0A0F93C492800D7
:10C2500003F080F83B4D2B78002B14D0344E3A4934
:10C26000300003F05CF802F039FF04F06BFD216848
:10C2700004F078FB06F072FB0B0002210200009133
:10C28000300003F08CF9314800F06CFC2B78002B67
:10C2900014D0274E2E49300003F041F802F01EFF63
:10C2A00004F050FD216804F05DFB06F057FB0B0025
:10C2B000022102000091300003F071F9254E33682D
:10C2C000002B07DCFFF788FBFFF75AFFFFF78CFD19
:10C2D000012300E0013B3360FFF7A6FC2B78002B25
:10C2E0001ED0134D1C49280003F019F802F0F6FE89
:10C2F00004F028FD216804F035FB06F02FFB0B004D
:10C30000022102000091280003F040F9134928009F
:10C3100003F005F8124B0A221968280003F07FF891
:10C3200073BDC0467C21002018220020A0200020E0
:10C3300060250020B25902008A5A020000007A44A7
:10C34000915A020080210020945A020044220020C9
:10C35000B85A0200DC230020CE5A0200DA5A02004A
:10C36000E0230020E121F0B5634C8DB049022000AC
:10C3700003F068F9614B1A781D00002A03D0604968
:10C38000200002F0CCFF322002F0DAFE5D4802F01D
:10C3900005F9322002F0D4FE00210E2002F0EEFE5C
:10C3A0000021102002F0EAFE01210B2002F0E6FE3F
:10C3B00000210B2002F000FF2B78002B03D0524904
:10C3C000200002F0ACFF514802F033FA0A220100CB
:10C3D000494803F028F8FA20800002F0B1FE4C4CE6
:10C3E0004C4D2000290000F0CCFB2900200000F07B
:10C3F00076FD494D280000F042F90100200000F0D0
:10C40000BDFB4649200000F06FFD2900200000F030
:10C4100022FD434F2000391D00F01DFD414E20003C
:10C42000311D00F018FD40492000043100F013FDDB
:10C430003E4B2000191D00F00EFD3D4B2000191D44
:10C4400000F009FD3B4A0021200000F0C3FB3A4AFE
:10C450000121200000F0BEFB384D00212A003800E9
:10C4600000F008FA2A000021300000F003FA344DF1
:10C4700000212A002D4800F0FDF92A0000212C4857
:10C4800000F0F8F96B460025D91D012238000D7027
:10C4900000F09BF96B460122991D30000D7000F0F1
:10C4A00094F91422290002A806F00AFC02A91F48E8
:10C4B00000F066F91422290007A806F001FC07A97C
:10C4C0001B4800F05DF91F4A1F4B1A6002F01EFE68
:10C4D0001E4B1860200000F09DFB084B1B78AB4200
:10C4E00003D01B49044802F035FFFA20400002F057
:10C4F00027FE0DB0F0BDC04660250020A020002022
:10C50000E55A0200A4240020EF5A020088210020EE
:10C5100044220020085B0200A0210020FFFF000051
:10C52000BC2100201C220020F0210020E423002058
:10C530000824002011B901004DB90100F1B3010038
:10C54000B1B40100409C0000B8210020D823002095
:10C55000105B020070B5002504AC24780573A94275
:10C5600005D10A4B0A4A23210A4806F0FDFA016068
:10C570000949920052589B0002715B588371A300D5
:10C580005B58856043710223C37170BD675B020015
:10C590002A5B0200755B02001C5E0200037B002B1D
:10C5A00004D1437383730361013303737047000045
:10C5B0001FB50191A02100240068C900D2B24450E7
:10C5C000012A07D0A24203D0032A05D1042202E0A7
:10C5D000022200E006221343034A8350034B019AD0
:10C5E000C250012343501FBD540500002405000024
:10C5F00010B50400FFF7D2FFA1222368A179D20071
:10C6000099506179064A2000995021790432995055
:10C61000044B19685A689B68FFF7CAFF10BDC046F3
:10C620000C050000702400200368074A99501A0086
:10C63000FC32D1680029FCD0A321C900585800233E
:10C64000C0B2D3607047C0461C05000007B5802209
:10C65000064BD2051A600221002219719A60044823
:10C6600000911E230349FFF775FF07BD70240020CA
:10C670007C24002000300040016082807047006808
:10C6800070478088704729DF704728DF704703684C
:10C6900018680130431E9841C0B2704780235B0583
:10C6A00010B51969006803F0B9FA04002000FFF71B
:10C6B000ECFF1128FAD010BD70B51C0005000E006B
:10C6C000FFF7ECFFA408220031002868FFF7DBFF2A
:10C6D0001128F8D070BD002210B500689A4203D22C
:10C6E00084588C500432F9E710BD37B50625040094
:10C6F0002A000021684606F0E3FA2A00201D694658
:10C7000006F0C6FA431E9841C0B23EBD10B5034CB8
:10C710000430210000F0E0FC200010BD9024002037
:10C7200010B50430062206F0C2FA10BD10B5043070
:10C730000622002106F0C4FA10BD10B50400016005
:10C74000FFF7F4FF200010BD807A7047C068704783
:10C75000007C704700207047C368585C704770B514
:10C760000D00110002680400D6691A00B0470123C9
:10C77000A374A369002B02D021002800984770BD44
:10C7800070B5040008000D0007F01CF92368C2B260
:10C790002900DB692000984770BD0000054B10B5EB
:10C7A000083304000360C068002801D006F066FA70
:10C7B000200010BDAC5B020010B50400FFF7EEFFD7
:10C7C000200003F0F3F9200010BD10B50400807ABA
:10C7D000031C904200D9131CDAB22374E06806F0FF
:10C7E00066FA63690120002B04D01A6821001268E0
:10C7F0001800904710BD0000F8B51D000400170098
:10C800000430104A00F0A0F80F4B083323602B1CB3
:10C81000142D00D9142300212000A372E16021749B
:10C820006774A174E17461610C221830DEB206F005
:10C8300047FA002D03D0300006F016FAE060200021
:10C84000F8BDC04603280000AC5B0200407C704786
:10C85000C07C704710B5C274531E9A4102239A1AC5
:10C8600006329A4013580C00002B02D00100200021
:10C87000984710BD0B2902D8063189000A5070472D
:10C88000416170477047704770470020704770479C
:10C89000704700207047002070470020704700203C
:10C8A000704700207047002070470020704700202C
:10C8B000704700207047002070470020704700201C
:10C8C0007047704770477047704710B5040003F019
:10C8D0006DF9200010BD0000064B012208330360F3
:10C8E0006423838000238272C3800381C360036159
:10C8F0007047C046DC5B0200016170470120704751
:10C9000010B50400034B08330360FFF747FF200016
:10C9100010BDC046405C020010B50400FFF7F0FFF8
:10C92000200003F043F9200010BD000070B50400A2
:10C930001D00FFF761FF034B2574083320002360BF
:10C9400070BDC046405C020010B50400FFF794FEC5
:10C95000024A200013780133137010BDA224002076
:10C96000014B18787047C046A224002010B5C0685B
:10C9700003681B6A984710BD08B4024B9C460438F4
:10C9800008BC60476DC9010010B5C06803685B6AE8
:10C99000984710BD08B4024B9C46043808BC604759
:10C9A00089C9010010B5C06803689B6A984710BD2B
:10C9B00008B4024B9C46043808BC6047A5C9010076
:10C9C00010B5C0680368DB6A984710BD08B4024B15
:10C9D0009C46043808BC6047C1C9010010B5C06856
:10C9E00003681B6B984710BD08B4024B9C4608387F
:10C9F00008BC6047DDC9010010B5C06803685B6B07
:10CA0000984710BD08B4024B9C46083808BC6047E4
:10CA1000F9C9010010B5C06803689B6B984710BD49
:10CA200008B4024B9C46083808BC604715CA010090
:10CA300010B5C0680468E46BA04710BD08B4024B91
:10CA40009C46083808BC604731CA010010B5C06870
:10CA500003681B6C984710BD08B4024B9C4608380D
:10CA600008BC60474DCA010010B5C06803685B6C24
:10CA7000984710BD08B4024B9C46083808BC604774
:10CA800069CA010010B5C06803689B6C984710BD67
:10CA900008B4024B9C46083808BC604785CA0100B0
:10CAA00010B5C0680368DB6C984710BD08B4024B32
:10CAB0009C46083808BC6047A1CA01000300FC334B
:10CAC0009B6F10B5002B02D06130FF30984710BD2E
:10CAD0000300FC33DB6F10B5002B02D06130FF3058
:10CAE000984710BD0100100010B504681A006131AC
:10CAF00002AB1B78FF31646AA04710BD70477047D6
:10CB000070B5050004006135FF3511002800FC34C4
:10CB1000FFF706FE236F002B01D02800984770BD59
:10CB20000300FC3361305B6FFF3010B50400002B55
:10CB300000D098472000FFF7F9FD10BD010010B5A7
:10CB400061311000FF311A00FFF784FE10BD0100B3
:10CB500010B5100061311A0002AB1B78FF3100F0F4
:10CB60007DFA10BD10B5C0680368DB68984710BD3A
:10CB700010B5C06803681B69984710BD8C30016010
:10CB800070479C300160704770B50600A836336866
:10CB900004000D00002B05D100F036FA800006F0ED
:10CBA00063F830602000AC30037832689B009D5001
:10CBB00003780133037070BD70B50C0005000800E8
:10CBC000FFF7D0FF21002B006131FF3115C915C3DC
:10CBD000280070BD0F2903D85A31890040184260DF
:10CBE000704710B50400FFF7BBFE800006F03CF86C
:10CBF0002300A0331860103303600C3343602433E8
:10CC00008360631CFF33C3600C3303610523A434CA
:10CC1000237010BD30210023F0B5AFB002AA521826
:10CC20001370030090331968040000291DD008A870
:10CC300000F0BCFA08A800F0EAFA022383429B4104
:10CC40005B4216AA143305001070537008A800F058
:10CC5000DCFA1A260100522002AB2A00761BC0180B
:10CC600006F025F8F6B2012501E01C260D00230090
:10CC70008C331968002924D008A800F097FA08A876
:10CC800000F0C5FA431C0700B3421ADA1F231A004A
:10CC90006A4316A817540622022F00D8043A6B43A1
:10CCA000C3185A7008A8079300F0AFFA079B010059
:10CCB0003A00981C05F0FBFF023E0135F61BEDB271
:10CCC000F6B2230094331968002915D01A79002A86
:10CCD00012D0022E10D9531CB34201DB023EF2B235
:10CCE0001F20684316ABC2541818FF23437002304C
:10CCF00005F0DDFF0135EDB223009C331E68002EE8
:10CD000022D0300006F05EFEC0B21D2804D83022CA
:10CD100002AB9B18187004E030211D2302AA5218A0
:10CD20001370302202AB9B181A780923824280418B
:10CD300031214042181A02AB5B181870322002AB46
:10CD40003100C01805F0B3FF2700A0373B68002B67
:10CD500002D12000FFF745FF002307932300A433EF
:10CD60001B78079A9A4201DB00271EE0079B3A686E
:10CD70009B009E583000FFF784FC2C4B984205D155
:10CD8000301E00D0301F211DFFF77AFD079B0133B5
:10CD9000E3E72300A8331B68BA00D6583000FFF73A
:10CDA00070FC224B984206D001372300AC331B782D
:10CDB0009F42EEDB07E0301E00D0301F210008311B
:10CDC00000F05FF9F0E7002B0BD021002D31FF318F
:10CDD0002000FFF7D9FE21003931FF312000FFF795
:10CDE000D3FE3022210002AB9B18AC311B780978AE
:10CDF000E0685A1E9341026804912100A831096835
:10CE0000DBB203912100A431097802912100A03105
:10CE1000096801910EA900919668290016AAB047E9
:10CE2000E06803681B6D98472FB0F0BD0328000031
:10CE300070B50600A036336804000D00002B01D148
:10CE4000FFF7CFFEA434237832689B009D502378EF
:10CE50000133237070BD10B5FFF7EAFF10BD00006D
:10CE6000194B10B51A00083202601A00040088330A
:10CE7000703283604260FFF77BFE2300A83318689E
:10CE8000002801D005F0FAFE2300A033186800281E
:10CE900001D005F0F3FE20003530FF3000F0BAF885
:10CEA00020000930FF30FFF779FC2000DC30FFF76D
:10CEB00075FC2000B830FFF771FC2000103000F046
:10CEC000A1FE200010BDC046945C020010B5040015
:10CED000FFF7C6FF200002F069FE200010BD10B56C
:10CEE000B830FFF74DFC10BD07B56B46D98006334F
:10CEF000DC3002221900FFF768FC07BD354BF7B59F
:10CF00001A00083202601A008833836003000400AC
:10CF10007032103342601800009301F0BDFA230014
:10CF2000002520008C335D609D601D731D615D6177
:10CF30001D76DD611D6004331D772749B03000F098
:10CF4000AAF82300B833019302221323234901983E
:10CF5000FFF752FC022320001A002149DC30FFF7C2
:10CF60004BFC204F601C3900FF3000F094F820008B
:10CF70001D4E0930042331002022FF30FFF73CFC16
:10CF800020002D303900FF3000F07DF820003530D2
:10CF900031002022FF3000F045F8200061302100F0
:10CFA000FF30FFF7CAFB2000009B6D30E3601022CA
:10CFB0002900FF3005F084FE0C490198FFF7E0FBE3
:10CFC00029002000FFF790FFE0682100FFF794FCA4
:10CFD0002000FEBD945C0200705C0200755C0200E3
:10CFE0007A5C02007F5C0200845C0200895C0200C3
:10CFF00010B50400FFF740FB024A2000137801330C
:10D00000137010BDA3240020014B18787047C04650
:10D01000A3240020704710B5040002F0C7FD2000D3
:10D0200010BD000070B5040015000430094AFFF778
:10D03000DFFF00212000084BA57208332360E31CAA
:10D04000E1720422D9772830616205F039FE2000B0
:10D0500070BDC046032800003C5D020070B50400AE
:10D06000C3720D000C3011001A0005F020FE0122E1
:10D07000E31CDA77A36A002B02D02100280098472E
:10D0800070BD41627047A02210B504009201FFF705
:10D09000AFFF200010BDA02210B504009201FFF7E1
:10D0A00053FC200010BD000013B504000123FFF75E
:10D0B0003DFC074B012223606B46D91D0023200055
:10D0C0000B70FFF782FB034B2000236016BDC046A8
:10D0D000545D020044580200F0B51E4C8BB00500B0
:10D0E0000E0001A8210002F084FC210004A802F037
:10D0F00080FC05242B5D0F2B03D8174901A802F0F3
:10D10000F2FC1022295D07A802F0BDFC07A904A8C3
:10D1100002F0A0FC07A802F025FC04A901A802F077
:10D12000DCFC671E002C06D00C4901A802F0DBFCD9
:10D130003C007B1CDED100231222310001A802F04A
:10D14000DFFC04A802F00EFC01A802F00BFC0BB0FF
:10D15000F0BDC046EE5A0200565A02007C5D020045
:10D16000F8B506000F000400A31B0D4D9F4212DD11
:10D170000F222378934303D10A49280002F0CFF805
:10D1800021781022280002F026F90749280002F031
:10D19000C6F80134E8E7280002F0CAF8F8BDC04636
:10D1A00060250020565A0200B2590200F0B5002353
:10D1B000050085B003AE2960037508000F003370C9
:10D1C0007370B37006F0FEFB441E002C1ADB2B7D3F
:10D1D00001930F2B16D83A5D2D2A01D101340FE0AF
:10D1E0003B19013B1B787270002110223000337014
:10D1F00006F024FD019BEB1818712B7D01332B7574
:10D20000023CE2E7280005B0F0BD04307047007D25
:10D21000704771DF704772DF704773DF704775DFEB
:10D22000704776DF704777DF704778DF70477ADFC7
:10D2300070477CDF70477EDF70477FDF704786DF97
:10D24000704790DF704792DF704796DF704798DF36
:10D25000704799DF7047A0DF7047A2DF7047A3DFF8
:10D260007047A4DF7047A6DF7047A9DF704760DF13
:10D27000704761DF704762DF704763DF704753DFDD
:10D28000704710DF704711DF704760300078431E31
:10D290009841C0B2704703000200002030B57133DE
:10D2A0001C78A04213DA556F0301EB181D688D42FC
:10D2B0000BD10020D98981420AD01B7B9B0707D55F
:10D2C000783213780130584002E00130E9E700205D
:10D2D00030BD0300002270B571331C78A24219DA08
:10D2E000456F1301EB181D688D4211D10022D989B9
:10D2F000914210D01B7B9B070DD50300012478338E
:10D300001C70808FFFF7A1FF42424241D2B202E07F
:10D310000132E3E70022100070BD0200030000208C
:10D3200030B571321478A0421BDA5D6F0201AA1881
:10D3300015688D4213D10020D189814212D0127B11
:10D34000110704D578331B78013058400AE05207A2
:10D3500008D560331878431E9841C0B202E001300E
:10D36000E1E7002030BDF0B587B0050001937130D2
:10D3700006780020B0422FDA6F6F04013C1927684D
:10D380008F4227D10020E689864226D0217B0C24BB
:10D39000214222D02F0060373C7884421DD00223E6
:10D3A0000907C90F5B1A03A90B706B469B888A603B
:10D3B000CB802B0001227833013C1A7048704E80DC
:10D3C00088803C70A88FFFF742FF03005842584105
:10D3D000C0B202E00130CDE7002007B0F0BD03008D
:10D3E000002230B571331C78A24212DA456F130166
:10D3F000EB181D688D420AD10020DA89824209D0DB
:10D40000187B30231840431E9841C0B202E001321D
:10D41000EAE7002030BD7FB5030002000020713331
:10D420001C78A0422ADA556F0301EB181D688D4263
:10D4300022D10020DC89844221D030211B7B0B4289
:10D440001DD002266946DB06DB0F8D19F31A01A9F0
:10D450002B804870012388801000E41878300B700E
:10D4600003704C80CE808D60908FFFF7F0FE03003C
:10D4700058425841C0B202E00130D2E7002004B067
:10D4800070BD10B503681B6C984710BD03000022E7
:10D4900030B571330400187885B0824227DA656FA1
:10D4A0001301EB181D688D421FD10020DA898242DA
:10D4B0001ED0197B302319421AD06B4658809D1C10
:10D4C000012301A9D2184A800222CA8022007832A0
:10D4D0000B701370487088808D60A08FFFF7B7FEC7
:10D4E000030058425841C0B202E00132D5E70020A3
:10D4F00005B030BD0B0010B5273314DB0B001D3316
:10D5000013DB0B00133312DB0B000F3311DB0B00AB
:10D510000B3310DBCB1D10DBCB1C10DBCB17581AE9
:10D52000C00F80000DE028200AE01E2008E0142033
:10D5300006E0102004E00C2002E0082000E00420B7
:10D54000404240B2FFF76FFE43425841C0B210BDA7
:10D5500010B51321808FFFF764FE10BD13B50400D2
:10D560006846FFF756FE2069002805D06A46036822
:10D570000132DB692100984713BD0000002337B555
:10D58000040001A80193FFF77AFE019805F06CF9F9
:10D590000022074B04F064FB05F034FA021C2069FA
:10D5A000002803D001680D6A2100A84737BDC04696
:10D5B0000000D03F704710B5040086B0182200214B
:10D5C000684605F07DFB0023A27A9A4206D123002B
:10D5D00034331B785A1E93410322D31A6A461370C0
:10D5E000A0880A21000102F0A3FB6B46188268465E
:10D5F000FFF713FE06B010BD0300F0B561330C0059
:10D600001A7805000023142191B0934262DA0E00CB
:10D610005E43686E86193068A04209D12000FFF78A
:10D6200015F90123184255D07368002B02D151E03F
:10D630000133EAE72F00290033373B7814311A0011
:10D6400008A8019305F033FB236820001B69984765
:10D65000019B04301818C3B201931F2B3AD870688D
:10D66000FFF70DF8010002A8FFF7A0FD23682000D6
:10D670001B693E789847182202AB9B1803309855D7
:10D680003E7808AB9B19023A02A85A70FFF7BDFD1D
:10D69000023608AB01000222981905F008FB3E781B
:10D6A00008AB04369E1923682000DB68984723687E
:10D6B00007001B692000984739000200300005F080
:10D6C000F6FA002301991A0008A8FFF7A4FDAC633D
:10D6D000012000E0002011B0F0BD0A21F0B5D9B062
:10D6E00004ABC9188E2311AE5B00040030000B8020
:10D6F000FFF7BFFD011E00D067E23388302B00D159
:10D7000049E111D8112B5BD004D8012B21D0102B6B
:10D7100025D05AE2142B00D1CEE0192B00D1DAE04B
:10D72000132B00D051E2A3E0382B00D1FFE106D843
:10D73000322B00D17EE1362B00D1DEE145E2502BC9
:10D7400000D1DBE0522B00D11FE1392B00D03CE2AD
:10D7500011E260342278337AD318237035E2B0882E
:10D7600009ADA0872900FFF786FD23002A786033E2
:10D770001A702069002806D03D22036804A95218B7
:10D780001B6821009847E288052A0FD9C821238900
:10D7900009018B420AD86B800023AB809133FF33A1
:10D7A0002A80EB80A08F2900FFF739FD2300683322
:10D7B0001B78002B00D108E2A08F002201211CE180
:10D7C00001235B42A3872300050060331870230008
:10D7D00061331B789D4218DA142600276E43636E6E
:10D7E0009E19377477743068FFF732F8B8420AD060
:10D7F0002069B84207D0036832685B6921009C4603
:10D800003B006646B0470135E1E72069002803D0B8
:10D81000036821005B68984700250C2623006833C5
:10D820001B789D4204DB00232500180071350AE0B7
:10D8300030006843E36E042218180830002105F018
:10D840003FFA0135EAE72A78934208DA616F1A0154
:10D8500089180873616F01338A18D081F3E72300B8
:10D86000002278331A70236820009B699847ACE146
:10D87000E068002800D1A2E1FEF709FF002800D0EF
:10D880009DE107AD05220021280005F019FA0123CA
:10D890003022EB7013432B70072300216B70093388
:10D8A000AB70E36D0D9109930E910F910A910B915D
:10D8B000A08F09AB2A0086E1E56D338A6A8AA08FC2
:10D8C0009A4203D10B000A00290001E00B000A0074
:10D8D000FFF7B5FC79E1327A002A00D075E1E06803
:10D8E000002804D021001C234031FEF7E5FE20690A
:10D8F000002800D169E103689B68FBE00500F3881C
:10D900000393230061331B789D4200DB5DE1142704
:10D910006F43636E039ADF193B8993420CD12069F0
:10D92000002800D151E1327C036800921D69462332
:10D9300004AA9B183A683DE1BB89039A934222D11D
:10D94000F37CB27C1B021343012299B213403B7457
:10D9500001234A081A4002330B407A745A1E93413D
:10D960003868DBB20493FEF773FF049B98420AD039
:10D970002069002800D128E103683A685D69210028
:10D98000049BA84721E10135BBE7A08F0B000A00EB
:10D99000FFF76BFC19E1F588002D31D14227B389DF
:10D9A000039304ABFF18039B9D421EDA23006833E8
:10D9B0001A780023934215DA0C205843E16E0818B8
:10D9C000B9788C4681798C450AD139888C46818812
:10D9D0008C4505D1391D0422083005F068F901E0B5
:10D9E0000133E7E701350837DDE70022039BA08F0D
:10D9F000DB00F618B189013189B2FFF722FCE4E0BF
:10DA0000230005000C2168331A78954200DBDCE026
:10DA10000B006B43E06EC3181889002808D05889A2
:10DA2000002805D02200083370321570190057E025
:10DA30000135EAE72000F3887030002B3DD10C213E
:10DA400042220378E76E4B43FB189B68099304ABB3
:10DA5000D2180A23B58905916B430E33F31803934B
:10DA6000230071330493039B9A4221D00025049B29
:10DA70001B789D4217DA666F2B01F318059906781B
:10DA80004E435968F6598E420BD191789E7AB14235
:10DA900007D111881E89B14203D116791E731689E8
:10DAA000DE810135E3E7158909AB1D800A32DAE72B
:10DAB000A08F09A9FFF7C7FB87E0230068331D7813
:10DAC0000C23027801325343AA420EDAE16EC918E0
:10DAD0000E89002E06D04E89002E03D00270083128
:10DAE000A08FE7E701320C33EEE7206900286CD005
:10DAF0000368DB682100984767E0230078331870DB
:10DB00000623F288FF339A4202D1E368002B19D131
:10DB10002300713318780023B189834255DA656F89
:10DB20001A01AA18D5898D4239D00133F5E72300AF
:10DB3000783318700623F288FF339A4245D1E368A0
:10DB4000002B42D009AD0522280005F0B9F80121CB
:10DB5000EA782B780A43EA7070220B439343403AE9
:10DB600013432B7007236B700933AB70A08F290010
:10DB7000FFF761FB29E0B37BB589022B03D1A08FAE
:10DB80002900FFF766FB23007133197800238B42CD
:10DB90001BDA606F1A018218D089A8420DD1206962
:10DBA000002812D0317C036800919D69462304A9A6
:10DBB00012685B182100A84707E00133E7E700235C
:10DBC00085211A00A08FFFF738FB59B0F0BD10B5C2
:10DBD0000400FFF758FB606F002801D005F04EF8F5
:10DBE000E06E002801D005F049F8606E002801D0F1
:10DBF00005F044F822000023613271341370D371B0
:10DC0000237010BD10B50400044B08330360FFF708
:10DC1000DEFF2000FEF758FE200010BD845D0200EC
:10DC200010B50400FFF7EEFF200001F0BFFF200059
:10DC300010BD000013B56C4612886180228001007F
:10DC40006A4602480193FFF70CFB16BDFFFF000078
:10DC5000F0B5F3B002937AAB1B78070007937CAB67
:10DC60001B7801911400D14904220EA8099305F0F4
:10DC70001EF800210EA8FFF704FB13ADCC4B1422B5
:10DC80000021280001260F9305F01AF80A230FA996
:10DC900028002B802E732E72FFF7E9FA2823002527
:10DCA00011A80380DB1843804133FF33C380858094
:10DCB000FFF7BDFA2800FFF7B6FA02233B750433DD
:10DCC000BB753B00032233337E751A70019BAB4258
:10DCD0001FD0AC421DD01F23019A5343E618B44213
:10DCE00017D03D003335287823783A18013313755F
:10DCF00063780230C0B25375287038182278A11C9E
:10DD0000143004F0D4FF23782A781F34D3182B70F2
:10DD1000E5E70023029A9A4221D0789A9A421ED0CF
:10DD20001F261500029A5643AA190192019AAA4287
:10DD300015D02E782AA8721CC2546978C2180233F2
:10DD4000DCB251700019A91C320004F0B0FF3A0097
:10DD5000012134193432E3B211701F35E6E73A007D
:10DD600038003332117814302AAAFFF754FA002011
:10DD7000FFF75BFA0024079B9C420EDA799AA30016
:10DD8000D058FEF77EFC8B4B984204D13A006132AA
:10DD90001378013313700134EDE73B0061331878D9
:10DDA0000338C0B218701423584304F05DFF0023F9
:10DDB0000BAA1380799A78660292019308930493D0
:10DDC000019B079A934200DB11E2029B1D68280029
:10DDD000FEF755FC01001DA8FFF7E8F91DA8FFF7A5
:10DDE00014FA04001DA8FFF712FA022808D163787C
:10DDF00021781B0210AA0B4313800123937014E0B7
:10DE000032AE10222100300004F051FF637B227BF0
:10DE10001B02134310AA138000231A217373337358
:10DE20000AABC9183000FFF728FA2800FEF729FCD2
:10DE3000A0239B01984212D12800FEF720FC5E49E6
:10DE400005F0AEFD002800D1CAE12800FEF717FC5E
:10DE50005A4905F0A5FD002800D1C1E182E2280061
:10DE6000FEF70FFC534B984200D048E12C1E00D027
:10DE70002C1F251D2800FEF702FC514905F090FDDE
:10DE8000002813D10122102332AD13432B702368D5
:10DE90002000DB689847236806001B69200098472C
:10DEA000310082B22800FFF7C4F999E12800FEF79B
:10DEB000E6FB444905F074FD002807D123682000E3
:10DEC000DB6898470088FFF7B0F989E12800FEF782
:10DED000D6FB3D4905F064FD002800D180E120001B
:10DEE000FEF7B4FC236803901B69200098470AAB37
:10DEF000D88014230026049A31005A437B6E059281
:10DF00009B18089A1C605A601E745E741C2223A819
:10DF100004F0D6FE01226421039B93430AAA5218FF
:10DF200013703023039A1A4213D00CAD0322310030
:10DF3000280004F0C5FE102301221A432A70012292
:10DF400013436B70AB7805329343043A1343AB70C1
:10DF500028950DAD03220021280004F0B1FE3223E4
:10DF6000039A1A4212D0FA68233B002A06D00121F4
:10DF70002A789A430A431340202205E001212A7897
:10DF80009A430A431340102213432B700C23039A25
:10DF90001A4223D0FA6803330DA9002A16D00120B3
:10DFA0004A789A4302431340202215E07E5D020026
:10DFB0008020002003280000705C02007F5C0200CB
:10DFC000755C02007A5C0200845C020001204A78E1
:10DFD0009A4302431340102213434B7006220DADA7
:10DFE000AB7820009343043A1343AB7023689B69DA
:10DFF000984701210122AB7882438B431343AB70D6
:10E00000019B5B180393029B0693079A039B934221
:10E0100038DA069B5E683000FEF733FBA4239B01D1
:10E0200098422FD1351E00D0351F2E1D3000FEF72F
:10E0300026FBD34905F0B4FC002810D12B6828003A
:10E040009B68984724902B682800DB6898472B68CA
:10E0500023AE3081DB682800984770810CE03000E7
:10E06000FEF70DFBC74905F09BFC002804D12B6887
:10E0700028009B6898472690039B01330393069BD7
:10E080000433C1E718AE14220021300004F018FE5A
:10E0900010AB18930DAB73600AABDB8820003381A3
:10E0A000236800259B689847059A7B6EB0819B1872
:10E0B0000833320023A928003561FFF7CEF80AABF8
:10E0C000DB88AB4216D00AAB9A1D13889D4208DA52
:10E0D000236829005B692000984732ABE85401357A
:10E0E000F1E7796E059B8C4663441889002132ABB9
:10E0F000FFF7A0FD049B0133DBB2049370E028001E
:10E10000FEF7BFFAA4239B01984269D12C1E00D0D0
:10E110002C1F251D2800FEF7B2FA994905F040FC96
:10E1200000285DD02800FEF7AAFA974905F038FCD0
:10E13000002855D02800FEF7A2FA944905F030FCDB
:10E1400000284DD02800FEF79AFA8E4905F028FCE9
:10E15000002845D023682000DB6898470DAE18AD35
:10E1600030801422002123A804F0AAFD03220021FC
:10E17000280004F0A5FD0223AB7023682000DB68B3
:10E180009847328880B2801A03000121581E8341CB
:10E19000A87888431843A870F8680E312B780028B7
:10E1A00000D1E6E001208B4303430B4020210B43C9
:10E1B0002B7010AB239318AB2493236823AEDB683A
:10E1C0003281200098470025B0810BAA3100280039
:10E1D0003561FFF744F80DAB1B88AB4200D0D9E0A6
:10E1E000019B01330193029B04330293E8E5002471
:10E1F000099BA34220D01E002500023EF6B2340047
:10E20000B54219DA7B9AAB00D4582000FEF739FAF0
:10E21000A0239B01984202D13A00683207E0200017
:10E22000FEF72FFA5A4B984204D13A007132137814
:10E23000013313700135E2E73B00683318780C2393
:10E24000584304F011FD3B00F86671331878A400C0
:10E25000000104F009FD7B9E7867331904930023C5
:10E26000029301930393049B9E426ED03468200076
:10E27000FEF705FA010032A8FEF798FF32A8FEF774
:10E28000C4FF050032A8FEF7C2FF022808D16B7850
:10E2900029781B021DAA0B4313800123937019E0F8
:10E2A0001022290023A804F002FD6B7B2A7B1B02AD
:10E2B000134371211DAA138000230AAA5218137058
:10E2C00001390AAA5218137022390AABC91823A8B7
:10E2D000FEF7D3FF2000FEF7D4F9A0239B0198425C
:10E2E00014D10C20019B00215843FB6E1B181C60AD
:10E2F0001D9A5A60FB6E04221818083004F0E0FCE6
:10E30000019B03940133DBB201931CE02000FEF774
:10E31000B8F91F4B984216D1029B7A6F1B01D21895
:10E32000211E00D0211F1160039951601D99916039
:10E3300000217A6FD21811737A6FD318D981029B9A
:10E340000133DBB2029304368DE7F868002803D06E
:10E35000FEF79DF9002831D13B6838009B6998474A
:10E3600073B0F0BD0BAA10A90120FEF774FF089549
:10E3700036E701208B4303430B40102117E7C046CB
:10E38000E85D0200ED5D0200F25D0200F75D020053
:10E39000032800000DAA13889D4208DA236829008B
:10E3A0001B692000984732ABE8540135F2E70BAB0C
:10E3B0001888002132ABFFF73DFC11E739001C2320
:10E3C00000224031F868FEF786F9C5E70023F0B572
:10E3D00004000E0089B000930133019323006133E0
:10E3E0001B78009A9A4253DA14255543636E5D19DF
:10E3F0002B68B34248D1A36B9E4204D123683100FD
:10E400005B6A20009847336830001B69984702AB6D
:10E41000D88033683000DB682F89984702AA030050
:10E4200006323800002104AFFFF704FC102200215F
:10E43000380004F045FC2B893B8002AB0633BB60FF
:10E440002B7C002B0ED0220060321378002B08D0DA
:10E45000013B13700123BB70A08F3900FEF703FF4F
:10E4600000E001936B7C002B0ED022006032137809
:10E47000002B08D0013B13700223BB70A08F390022
:10E48000FEF7F1FE00E00193009B01330093A5E746
:10E49000019809B0F0BD000010B50400FEF71CFAA9
:10E4A0000F4B002108332360230033331970597058
:10E4B00001235B42A3872000230040306033A16327
:10E4C0001C221970597061661972E16619745974C9
:10E4D00061671976E06504F0F3FB200010BDC046CB
:10E4E000845D0200F8B505000E0017000024BC4250
:10E4F00008D02B68315D1B6828009847002801D0A0
:10E500000134F4E72000F8BD704710B51C3001F06D
:10E510007EF810BD10B51C3001F06BF810BD70B561
:10E52000437E0D00002B05D06430040001F07EF81E
:10E53000002801D0002004E02000290001F04AF862
:10E54000012070BD10B51C3001F067F810BD00004F
:10E55000F7B50193FA23002504009B0083600D4B5F
:10E560004560083303601C300F00160001F027F8E7
:10E570002000643001F023F8074AB600B358276141
:10E580006375019B20009B009B586576A576A3755B
:10E59000FEBDC046FC5D02001C5E02000123A022FD
:10E5A000C375837D0C49C133FF33D2059B0099505D
:10E5B000437DC133FF339B009950CC210369074A47
:10E5C000490499500521243A9950817D0832995087
:10E5D000417D034A995070470C0600002405000055
:10E5E0000C050000F7B5050000200C0001938242E5
:10E5F0005CD0161E402E00D940262F001C37380054
:10E6000000F0F3FFB1222B69D20080219C5001223F
:10E6100089005A50A97E002901D11A621A6000248B
:10E62000731E2A69A34206D1019B002B03D08023CD
:10E6300002219B00D150012313621300FC33D968DF
:10E64000002902D1996A0029F9D0996A00290AD1D2
:10E65000D960A323DB00D1583800C9B2013400F0DF
:10E66000B9FFA642DCD8019A2B69002A04D11A000E
:10E67000FC32916A00290AD001210022AA76596150
:10E680001900FC3188680028FCD08A6007E001216D
:10E69000A976D961D16C0029FCD00021D164FC336A
:10E6A0009A6A002A01D000229A62E0B2FEBD10B53B
:10E6B0000123FFF797FF10BD0300AC3310B5040032
:10E6C0001970643000F091FF0123637610BD0000E3
:10E6D000F8B500220D0001004276AC310369040058
:10E6E0000878B121C9005850802189005A50013260
:10E6F0001A629A6026006436300000F088FF002815
:10E700000ED03000276900F074FF1E4BF8502369CB
:10E71000FC331A6A002A0CD19A6A002AF9D008E060
:10E720002369002D0AD11A00FC32916A002905D113
:10E730000EE09A6A002AF3D11A62DBE701225A61DD
:10E740001A00FC3291680029FCD00021916006E09B
:10E750000121D961D16C0029FCD00021D1641A00BB
:10E760000020FC32916A81420BD0074990625A58CE
:10E7700002305A50824204D0043A5342534102308C
:10E78000C01AF8BD1C050000C404000010B501212A
:10E79000FFF79EFF10BD000010B5072306220249B7
:10E7A0000248FFF7D5FE10BD00400040A424002021
:10E7B00070B506000C008D18AC4206D021783000F0
:10E7C000FDF732FF20700134F6E770BD014B416068
:10E7D000036070477C240020704770B504000E0071
:10E7E00040680021150000F0E7FC210026726572E8
:10E7F000022220680831FFF7DBFF0121606800F08A
:10E80000DBFC70BD70B504000D004068002100F015
:10E81000D3FC802321005B421D4325720222206825
:10E820000831FFF7C5FF6068012100F0C5FC607A80
:10E8300070BD10B504000121406800F09FFC01216B
:10E84000606800F0B9FC2068FDF7D2FE0F212000BF
:10E85000FFF7D8FF14281AD1412218212000FFF712
:10E86000BCFF02221B212000FFF7B7FFD8221A218C
:10E870002000FFF7B2FF012222212000FFF7ADFFA9
:10E880002000C1221821FFF7A8FF002001E001208D
:10E89000404210BD70B54C00E11D0500FFF7B2FF0E
:10E8A000A11D06002800FFF7ADFF3602304300B27D
:10E8B00003F0DAFF0022034B03F0D2F904F0A2F8D0
:10E8C00070BDC0460000103F10B500F05DF810BDEF
:10E8D000F0B5474680B48CB004000D0000F010F98C
:10E8E000274B060098461B780F005BB201330DD012
:10E8F0002000290000F09CFB002807D00022002304
:10E900002000290001F016FB002805D13000390055
:10E910000CB004BC9046F0BD01230293194B069441
:10E920000795039300230A934346049405951C78A6
:10E93000002C0FD1002300240893099402A800F0B2
:10E94000A5FB002810D00A9B0193002B11D1089E33
:10E95000099FDBE7002200231000190002F05CFD94
:10E9600008900991022CE9D104F02CF921230360CD
:10E97000E9E704F027F90A9B01930360E7E7C04643
:10E98000A1200020905E0200F8B515004F464646D3
:10E990005A001C006B42C0B42B434B4F5208DB0F94
:10E9A00088461343BB423AD84B005B0899464E4613
:10E9B00043420343DB0F3343BB4230D8434BE3189E
:10E9C0002B4343D00226A3171E40CB0F1E434B46BA
:10E9D00003432ED013002B4332D0BA4241D0B94565
:10E9E0002ED04B469A1A12153C2A32DC002C55DBED
:10E9F0002A00230002F010FD00F016FB00F076F96B
:10EA0000012E46D0022E39D0002E0ED0304A314B86
:10EA100003F0A0FB304A314B03F09CFB05E0020001
:10EA20000B002800210002F0CBF90CBC904699465F
:10EA3000F8BD022E10D0032EF7D127482849F4E75D
:10EA400043462548002B0ADB2649EEE700F04EF945
:10EA5000EBE721482349D3E71F482049E5E722494E
:10EA6000E3E791451FD0022EF6D0032EE5D000201B
:10EA70000021012ED9D180210906D6E7144A154B71
:10EA800003F068FB02000B001348144903F062FB1B
:10EA9000CBE7802424060B191900C6E73C32A7DA1D
:10EAA00000200021ACE7022E06D0032E09D00A4830
:10EAB000012E04D00D49B8E70D480E49B5E70E49BF
:10EAC000B3E70B480D49B0E70000F07F000010C02D
:10EAD000075C143326A6A13C182D4454FB210940A1
:10EAE000FB2109C0FB21F93FFB21F9BFFB21E93FD5
:10EAF000D221337F7CD90240FB21E9BF7CD902C0FF
:10EB0000F0B556464D4644465F46754BF0B40A0094
:10EB10000D00190083B0060004002940994200D17D
:10EB2000BAE0002D00DC94E02D1500D1A3E06D4B80
:10EB300012039C468023120B5B0365441A43EB07C8
:10EB400000D581E06B109846E30F9B189B1880223C
:10EB500016210026002764009203B818984202DCB0
:10EB600087181B1AB618E00F5B0001391B186400E8
:10EB700052080029F1D10022019294468022120607
:10EB80002020914609E09F4241D0E10FC918013889
:10EB9000CB186400520800281ED0614651189F42CD
:10EBA000F1DA8D18AC46CD0FED07BA464D4539D098
:10EBB000DB1B8C42BF417F42DB1B641A0199013889
:10EBC0008B46934459460191E10FC9185746CB181B
:10EBD000640052080028E0D123432BD1019B5B083D
:10EBE000414972108C466244F10702D58021090622
:10EBF0000B43414609058D181E002F0030003900D7
:10EC000003B03CBC90469946A246AB46F0BDA1423B
:10EC10000ED88D18AC46CD0FED074D4548D09A461D
:10EC20000023CAE76546002DC2DB7D1CAA46BFE76C
:10EC30003B00AAE7019B01333ED0019A0123944691
:10EC4000134063445B08CBE7E30F52009A1864005B
:10EC500078E76B005B0803432F00002BCED0002524
:10EC6000002A31D1E20A153D6405002AFAD080233A
:10EC70005B031A4223D180200023400300E00B00F5
:10EC80005200591C0242FAD02020401AED1A2300EB
:10EC9000C3408C401A434AE702002B00290002F0CF
:10ECA000DFFF32002B0002F08BF806000F00A5E713
:10ECB0006546002DB3DBB8E70136002390E701235A
:10ECC00020205B420021E1E73B000200390003F015
:10ECD00041FA02000B0002F09FFB06000F008DE7D7
:10ECE0000000F07F01FCFFFF0000E03FF8B5564652
:10ECF0004D4644465F46A54BF0B44E0080468946DB
:10ED00008A4676089E420CDDA14B9E4200DDA0E0C3
:10ED100000D19BE05346002B00DCE3E09D4B9E4A74
:10ED20009FE09E4B9E4200DDB1E09D4B9E4200DC89
:10ED30009FE001235B429B4642464B464046494684
:10ED400002F08EFF02000B0006000F0002F088FFA9
:10ED500004000D00934A944B02F082FF934A944BB7
:10ED600002F02EF822002B0002F07AFF914A924B1B
:10ED700002F026F822002B0002F072FF8F4A904B1F
:10ED800002F01EF822002B0002F06AFF8D4A8E4B23
:10ED900002F016F822002B0002F062FF8B4A8C4B27
:10EDA00002F00EF832003B0002F05AFF894A8A4B0B
:10EDB00006000F002000290002F052FF874A884B0E
:10EDC00003F0C8F922002B0002F04AFF854A864B67
:10EDD00003F0C0F922002B0002F042FF834A844B6B
:10EDE00003F0B8F922002B0002F03AFF814A824B6F
:10EDF00003F0B0F922002B0002F032FF0B0059465D
:10EE00000200013100D170E059463000CC003900D9
:10EE100001F0D6FF42464B4602F022FF774D784B79
:10EE20002D191C192268636803F094F942464B4679
:10EE300003F090F902000B002868696803F08AF972
:10EE400053460A00002B48DB03000AE0002800D1EB
:10EE500060E742464B464046494601F0B1FF030099
:10EE60000A00180011003CBC90469946A246AB46E9
:10EE7000F8BD644A644B01F0A3FF0022634B01F02C
:10EE80006DF8002800D154E743464A46E9E700F010
:10EE9000CBF85F4B04000D009E4237DC5D4B9E4279
:10EEA0005DDC02000B0001F08BFF0022574B03F0EA
:10EEB00051F9802306000F000022DB052000290005
:10EEC00001F07EFF0B0002003900300002F0A4FACE
:10EED0000023804689469B462EE7802212060300C7
:10EEE0008A18BEE72B4B4C4ABBE73000390001F0D3
:10EEF00067FF42464B4602F0B3FE02000B0040465D
:10EF0000494603F027F903000A00AAE7434B9E4253
:10EF10001ADC0022424B03F01DF9002206000F000C
:10EF20003F4B2000290002F09BFE0022374B01F0EE
:10EF300047FF0B0002003900300002F06DFA022397
:10EF4000804689469B46F7E60B00020035490020C3
:10EF500002F062FA0323804689469B46ECE60022D3
:10EF60002A4B03F0F7F8002206000F00274B200081
:10EF7000290001F025FF0B0002003900300002F0EB
:10EF80004BFA0123804689469B46D5E6FFFF0F4496
:10EF90000000F07F182D4454FB21F93FFFFFDB3FB9
:10EFA000FFFF1F3E11DA22E33AAD903FEB0D7624CE
:10EFB0004B7BA93F513DD0A0660DB13F6E204CC5A3
:10EFC000CD45B73FFF8300922449C23F0D555555AB
:10EFD0005555D53F2F6C6A2C44B4A2BF9AFDDE5222
:10EFE0002DDEAD3F6D9A74AFF2B0B33F711623FEC4
:10EFF000C671BC3FC4EB98999999C93FB85E0200AD
:10F00000985E02009C7500883CE4377E0000F03F6B
:10F01000FFFFF23FFFFFE53FFB21F9BFFF7F03400A
:10F020000000F83F0000F0BF49004B08190070478E
:10F030000A000300024330B50220002A00D130BD8F
:10F0400080221206914216D00C4A0D4C8A180420D8
:10F05000A242F4D90B4A8A18A242F0D90A4A4900BE
:10F06000490803209142EAD9064A00209142E6D19C
:10F0700058425841E3E7002BE1D0EFE70000F0FFF2
:10F08000FFFFDF7F0000F07FFFFF0F0000207047D1
:10F0900003210A4802680A430260094802680A43D9
:10F0A00002600849084A094B9B1A03DD043BC85813
:10F0B000D050FBDC00F096F8FCF75CF8240500402B
:10F0C000540500408463020080200020602100205D
:10F0D000FEE7FEE7FEE7FEE7FEE7FEE7084A09492E
:10F0E000094B10B51B688858FA22190A1B061843E9
:10F0F0009200002300F080FF4904C00B084310BDBC
:10F1000004050000001001405C250020084B094A5E
:10F1100009491B688858190A1B0610B51843074A85
:10F12000002300F069FF4904C00B084310BDC0462E
:10F130005C250020040500000010014040420F0043
:10F1400070B5041E09D0FFF7C9FF050000F014F8E0
:10F15000FFF7C4FF401B8442F8D870BD0022044B67
:10F160009A60044A13680133DBB213607047C046EB
:10F17000FC1001405C2500207047000000B51C28F1
:10F1800016D80C4A83009B58032911D8A0220800E6
:10F19000C133FF33D2059B0000F036FD02080406A0
:10F1A000002104E00C2102E0042100E00321D15001
:10F1B00000BDC0461C5E02001C280DD8074B800015
:10F1C000C058A0220123D2058340002901D104495F
:10F1D00001E0A121C90053507047C0461C5E0200E7
:10F1E0000C0500002D4B10B51A78012A19D12C4AB4
:10F1F0001268120715D12B4AE0241168F02208008A
:10F20000104021420BD128490968114209D12749F0
:10F21000274A11608021274A0902116001E0302845
:10F22000F1D01A78012A0DD11D490968090709D1C1
:10F23000F0201C4909680140402903D11A49096896
:10F24000014223D01B68DBB2012B25D1144B1B6874
:10F250001B0721D1134B1A68F0231A40A02A04D1AE
:10F26000114A12681A4203D016E0D02A14D1F7E7E7
:10F27000114B1A68012A03D1C022104B1A600BE00F
:10F280000F4A1A601A68012AFCD1F5E7C1218020D3
:10F29000C900C0054250D5E710BDC046E00F00F0E0
:10F2A000E40F00F0E80F00F0EC0F00F0DFFF07C004
:10F2B00004050040186C004000EC064014EC0640C9
:10F2C00075930000F7B506000D000C008B18019334
:10F2D000019B671B9C4207D0336821781B68300074
:10F2E000984701340028F3D13800FEBD70B5050001
:10F2F0000C00081E07D004F065FB2B6802005B6859
:10F3000021002800984770BD10B5FFF7EFFF10BD32
:10F3100010B503688A685B680968984710BD10B526
:10F32000FFF7E4FF10BD10B503681B68984710BDD8
:10F3300010B50249FFF7DAFF10BDC046D85E0200E3
:10F3400070B50400FFF7E4FF05002000FFF7F0FFB1
:10F35000281870BD70B50500FFF7C8FF040028002D
:10F36000FFF7E6FF001970BDF0B5160000228DB062
:10F3700002AB053301900D00DA77012E00D80A2682
:10F380000BAC2800310000F0CFFC0F00CBB22800FE
:10F390003100009300F042FCFBB237330500013C22
:10F3A000DBB2092F02D8009B3033DBB22370002D73
:10F3B000E7D121000198FFF799FF0DB0F0BD10B51E
:10F3C000002A04D10368C9B21B68984702E0D2B290
:10F3D000FFF7CAFF10BD10B5FFF7F1FF10BDF8B57C
:10F3E00006000C00151E04D10368C9B21B689847BB
:10F3F00014E0D2B20A2D0DD12A0000290ADA2D21FB
:10F40000FFF791FF614207002A003000FFF7ACFFD1
:10F41000381803E021003000FFF7A6FFF8BD10B553
:10F42000FFF7DDFF10BD70B50500FFF7D8FF040042
:10F430002800FFF77DFF001970BD0000F0B51E0029
:10F4400085B00AAB1B78310005001000170002934D
:10F45000FFF7EEFD4549002806D038003100FFF7E0
:10F46000E7FD012804D142492800FFF73FFF7BE078
:10F47000E022404B12063800310000F06FFD0028FA
:10F4800001D03D49F0E7E0223C4B12063800310044
:10F4900000F050FD0028F4D1002200233800310094
:10F4A00000F048FD002808D02D212800FFF73BFF81
:10F4B00080231B060190F61800E001900024002034
:10F4C0002F49029BA34206D000222E4B013401F0AB
:10F4D000A3FFE4B2F5E733003A0001F071FC0F003E
:10F4E000060000F0CDFD0A22039001002800FFF77E
:10F4F0003BFF019BC418029B2000002B34D00398D3
:10F5000003F0F4F90B0002003900300002F022FE93
:10F5100006000F0028001C49FFF7E8FE2318029C94
:10F520000193184B00223000390002F099FB0F00C4
:10F53000060003F063F90A22010002902800FFF799
:10F540004EFF019B013C1B180298019303F08CF9BC
:10F5500002000B003000390002F0FCFDE4B20600AE
:10F560000F00002CDDD1019805B0F0BDDB5E02007C
:10F57000DF5E0200FFFFEF41E35E0200FFFFEFC12D
:10F580000000E03F00002440E75E020037B51D00A8
:10F59000069BDBB200932B00FFF750FF3EBD37B553
:10F5A00019000500069B2800DBB200930B00FFF753
:10F5B00045FF04002800FFF7BBFE00193EBD10B553
:10F5C00040220021040003F07BFB00232000236481
:10F5D000636410BD3F23026C10B5541C2340446C7F
:10F5E0009C4201D08154036410BD00230364436432
:10F5F0007047436C026C934206D03F21C25C0133DA
:10F600000B404364100001E0012040427047036C4E
:10F61000406C181A00D540307047436C026C93421E
:10F6200001D0C05C01E0012040427047036C406C97
:10F630005A1C3F231340181A42424241D0B270472D
:10F640000120704710B503681322DB69984710BD8D
:10F65000704700000369054A9950FC331A6A002A72
:10F66000FCD0002201201A627047C0461C05000031
:10F67000030010B55C331A781F23134001221100D8
:10F6800099400D4B0424D967C221036989005C505D
:10F690005A60DA60A0220021D20099500122074965
:10F6A00052425A50064914305A500C395A500831B7
:10F6B0005A50FFF79AFF10BD04E100E00C0500006E
:10F6C0001405000010B51430FFF7A1FF10BD10B5F0
:10F6D0001430FFF7A2FF10BD10B51430FFF789FFFB
:10F6E00010BD0000030070B55E331C780269604BEA
:10F6F000D45003005D331C785E4BD450030061335B
:10F700001C785D4B012C0CD105005F352E78A225AD
:10F71000ED005651050060352E78A125ED005651BB
:10F7200000E00024D4509623DB00994238D9962378
:10F730001B01994237D996235B01994236D996230A
:10F740009B01994234D9E1239B01994232D99623F6
:10F75000DB01994231D9E123DB0199422FD996236C
:10F760001B0299422DD9E1231B0299422BD99623E2
:10F770005B02994229D9E1235B02994227D9E1230F
:10F780009B02994225D93D4B994224D9E123DB02C2
:10F79000994223D9E1231B03994221D8384B21E018
:10F7A0009E23DB021EE09D231B031BE0354B19E06B
:10F7B000354B17E0EC239B0314E0344B12E0344B41
:10F7C00010E0344B0EE0344B0CE0344B0AE0344B89
:10F7D00008E0344B06E08023DB0403E0324B01E019
:10F7E00080235B05314900245350042324395350AE
:10F7F0001100FC31CC600C62C1210134890014601D
:10F800005C309460535003781F202200D9B2084026
:10F81000824080342648FF345BB20251002B13DA59
:10F820000F230B40083B234C9B089B001B19032410
:10F830002140A140FC348C40DD69A543C0248C40AC
:10F8400021002943D96111E0194C9B089B001B1929
:10F8500003242140A140C025FC348C40AD005E59FA
:10F86000A643C0248C40210031435951026070BD31
:10F870000C050000140500006C05000090D003008A
:10F8800000D0BE0E00B013000050270000A04E00B4
:10F8900000F0750000509D0000F0EB0000903A0170
:10F8A00000E0D70100B0AF0300705F07240500003F
:10F8B00000E100E000ED00E0F7B5009308AB1B7835
:10F8C00000250193FA2304009B0083600E4B4560E2
:10F8D0000833036014300F001600FFF770FE23009A
:10F8E0005C3327611E70009B084A9B0099582300D7
:10F8F0005D331970019B20009B009A5823005E33F2
:10F90000DD701A70FEBDC046EC5E02001C5E020097
:10F91000036910B51A00FC32D2680400002A0AD02C
:10F92000A322D20099581430C9B2FFF753FE002227
:10F930002369FC33DA6010BD10B50248FFF7E8FF19
:10F9400010BDC046602500200D2307B5022200939C
:10F950000249013B0248FFF7AFFF07BD002000400E
:10F960006025002010B50400006803F087F920002E
:10F9700010BD10B504000068002801D003F07EF926
:10F9800000232360A360636010BD70B504000D0008
:10F990000068013103F0E8FF031E01D0012028C4F4
:10F9A00070BD036810B50400002B02D043688B4281
:10F9B00009D22000FFF7E9FF002805D0A368002B3B
:10F9C00001D122681370012010BD70B50E00110026
:10F9D00004001500FFF7E5FF002803D12000FFF722
:10F9E000C8FF04E0A5603100206803F0E3FF2000B9
:10F9F00070BD002370B504000D1E0360436083607A
:10FA00009D4207D0080003F0DDFF2900020020001E
:10FA1000FFF7DBFF200070BD70B5050000680C002B
:10FA200000280CD06B688A68934206D3096803F0FB
:10FA3000C1FFA368AB6000230AE003F01FF923684D
:10FA40002B6063686B60A368AB6000232360636016
:10FA5000A36070BD10B5041E8C4201D0FFF7DCFF1F
:10FA6000200010BD70B504000D1E08D0080003F082
:10FA7000A9FF290002002000FFF7A7FF01E0FFF720
:10FA800078FF200070BD1FB504000023080023602C
:10FA90006360A36001A904F017F901A92000FFF732
:10FAA000E1FF200004B010BDF8B504000F1E01D125
:10FAB000002610E00126002A0DD08368D518290001
:10FAC000FFF76FFF0028F3D02368A2683900981869
:10FAD00003F070FFA5603000F8BD10B58A680968B2
:10FAE000FFF7E2FF10BD70B505000C00081E06D040
:10FAF00003F068FF210002002800FFF7D5FF70BD6A
:10FB000070B50D00002A14D0002912D081689942E6
:10FB100002D800232B700CE0541EC91A8C4200D965
:10FB20000C0001682200C918280003F052FF0023CE
:10FB30002B5570BDF7B507000E0015001C009A424A
:10FB400001D9250014000D493800FFF752FFB368B2
:10FB50009D4211D29C4200D91C00336838001B1909
:10FB60001A78019200221A7033685919FFF77AFF48
:10FB70006A46336812791A553800FEBDEE5A020003
:10FB8000FEE7704710B500F015F8FFF7FAFF012007
:10FB9000FFF7D6FAFCF7E6FBFCF726FB024B002B3F
:10FBA000FAD000E000BFF7E70000000010B503F056
:10FBB00065F810BDC421114A89005058104B03400C
:10FBC000C020000203435350802391399B02FF3928
:10FBD00053501360A321802301220020DB05C900BC
:10FBE0005A509A60074B10395850C12002218000AA
:10FBF0001950403019501A607047C04600E100E0CB
:10FC0000FF00FFFF0010014002B47146490849009F
:10FC1000095C49008E4402BC7047C046002243087C
:10FC20008B4274D303098B425FD3030A8B4244D3C4
:10FC3000030B8B4228D3030C8B420DD3FF22090206
:10FC400012BA030C8B4202D31212090265D0030BC5
:10FC50008B4219D300E0090AC30B8B4201D3CB03BB
:10FC6000C01A5241830B8B4201D38B03C01A5241FD
:10FC7000430B8B4201D34B03C01A5241030B8B42FF
:10FC800001D30B03C01A5241C30A8B4201D3CB02EA
:10FC9000C01A5241830A8B4201D38B02C01A5241CF
:10FCA000430A8B4201D34B02C01A5241030A8B42D2
:10FCB00001D30B02C01A5241CDD2C3098B4201D3EA
:10FCC000CB01C01A524183098B4201D38B01C01A68
:10FCD000524143098B4201D34B01C01A52410309DF
:10FCE0008B4201D30B01C01A5241C3088B4201D38E
:10FCF000CB00C01A524183088B4201D38B00C01A3B
:10FD0000524143088B4201D34B00C01A5241411A61
:10FD100000D20146524110467047FFE701B500206E
:10FD200000F0F0F802BDC0460029F7D076E7704732
:10FD300003460B437FD4002243088B4274D303094C
:10FD40008B425FD3030A8B4244D3030B8B4228D3ED
:10FD5000030C8B420DD3FF22090212BA030C8B4213
:10FD600002D31212090265D0030B8B4219D300E0B3
:10FD7000090AC30B8B4201D3CB03C01A5241830B38
:10FD80008B4201D38B03C01A5241430B8B4201D3E8
:10FD90004B03C01A5241030B8B4201D30B03C01A11
:10FDA0005241C30A8B4201D3CB02C01A5241830A8B
:10FDB0008B4201D38B02C01A5241430A8B4201D3BA
:10FDC0004B02C01A5241030A8B4201D30B02C01AE4
:10FDD0005241CDD2C3098B4201D3CB01C01A52414B
:10FDE00083098B4201D38B01C01A524143098B42D4
:10FDF00001D34B01C01A524103098B4201D30B01BD
:10FE0000C01A5241C3088B4201D3CB00C01A5241E1
:10FE100083088B4201D38B00C01A524143088B42A6
:10FE200001D34B00C01A5241411A00D2014652413F
:10FE3000104670475DE0CA0F00D04942031000D35E
:10FE40004042534000229C4603098B422DD3030AB3
:10FE50008B4212D3FC22890112BA030A8B420CD3C3
:10FE6000890192118B4208D3890192118B4204D3EC
:10FE700089013AD0921100E08909C3098B4201D36C
:10FE8000CB01C01A524183098B4201D38B01C01AA6
:10FE9000524143098B4201D34B01C01A524103091D
:10FEA0008B4201D30B01C01A5241C3088B4201D3CC
:10FEB000CB00C01A524183088B4201D38B00C01A79
:10FEC0005241D9D243088B4201D34B00C01A524150
:10FED000411A00D20146634652415B10104601D3DD
:10FEE0004042002B00D54942704763465B1000D367
:10FEF000404201B5002000F005F802BD0029F8D00D
:10FF000016E770477047C0468446101C62468C4610
:10FF1000191C634600E0C0461FB501F037FE0028FB
:10FF200001D40021C8421FBD10B501F08BFD404235
:10FF3000013010BD10B501F029FE002801DB0020C2
:10FF400010BD012010BDC04610B501F01FFE0028F5
:10FF500001DD002010BD012010BDC04610B501F02C
:10FF6000B1FD002801DC002010BD012010BDC046FD
:10FF700010B501F0A7FD002801DA002010BD012016
:10FF800010BDC0468446081C6146FFE71FB500F05F
:10FF900091FB002801D40021C8421FBD10B500F01C
:10FFA0001DFB4042013010BD10B500F083FB00285E
:10FFB00001DB002010BD012010BDC04610B500F0CF
:10FFC00079FB002801DD002010BD012010BDC046D6
:10FFD00010B500F02BFB002801DC002010BD012033
:10FFE00010BDC04610B500F021FB002801DA00204A
:10FFF00010BD012010BDC046F0B54F464646C0B406
:020000022000DC
:100000001604360C9946330005042C0C070C150C0D
:1000100063437E436F4365431C0CAD1964199C46D2
:10002000A64203D980235B02984647446346250CC9
:10003000EF191D044B464A4343432D0C2404641915
:100040009918C91920000CBC90469946F0BDC046CD
:100050009E2110B5C905041CFFF7C4FF002803D179
:10006000201C00F005FE10BD9E21201CC90500F0DB
:1000700079FC00F0FDFD80231B069C466044F2E7FE
:1000800070B500220C4B04000D00FFF771FF002833
:1000900004D12000290002F0B1FB70BD064B002204
:1000A0002000290002F056F802F0A8FB80231B066E
:1000B0009C466044F1E7C0460000E041F8B54A02C2
:1000C000430244004E00C50F240E28009B09360E43
:1000D000C90F92098D4259D0A01B002800DC8DE089
:1000E000002E1AD1002A00D079E05A0704D00F223E
:1000F0001A40042A00D004335A0138D50134FF2CA9
:1001000000D189E028009B015B0AE4B25B02E405B0
:100110005B0A2343C0071843F8BDFF2CE5D08021BC
:10012000C9040A431B2800DD89E016002021C640CF
:10013000081A8240511E8A4132439B1A5A0114D533
:100140009B019E09300002F0E9FC0538864084429C
:1001500065DC041B330020200134E340041BA6406F
:10016000721E964100243343BFE75A07BFD1DF0810
:100170002800FF2C2FD1002F00D187E08022D2034E
:1001800013003B435B025B0AFF24BFE7A11B00296E
:1001900049DD002E29D0FF2CA7D08026F60432435B
:1001A0001B2900DD8DE017002026CF40711A8A4000
:1001B000511E8A413A439B185A01D6D50134FF2C6F
:1001C00064D0012276491A405B080B4013438CE748
:1001D000031ECAD100207B025B0AE4B296E7013815
:1001E0000028AAD0FF2C9DD17FE7002A00D17CE710
:1001F00001390029DFD0FF2CD2D176E7002820D1A9
:10020000601CC0B2012853DD80279E1AFF043740CE
:100210002FD0D61A0D0095E72800002376E7614B12
:10022000241A334061E700294DD1611CCEB2012E62
:100230002FDDFF292AD09B185B080C0055E701220F
:100240007BE7002C1BD1002B5BD0C04300280CD0D7
:10025000FF2E7ED01B2800DD92E01D002024C5402B
:10026000201A8340581E83412B43D31A34000D00BB
:1002700064E7002E00D065E700200024ABE7FF2EE6
:1002800067D08024E40440422343E3E7FF240023B3
:100290003CE7002C61D1002B7ED0002A00D124E75E
:1002A0009B185A0100D460E73E4A0C0013401CE73B
:1002B000002C1ED1002B2FD1002A66D013000D0078
:1002C00013E7012277E7002C1FD1002B5AD0C94336
:1002D00000290BD0FF2E50D01B295FDC1F002024EB
:1002E000CF40611A8B40591E8B413B439B18340011
:1002F00062E7002B1CD1002A4AD013000D00FF2416
:10030000F3E6130034000D00EFE6FF2E35D0802415
:10031000E40449422343DFE7002A00D1E5E68027D1
:10032000981AFF04074000D152E7D31A0D00DCE60B
:10033000FF24002A00D1D8E68020DB08C003034256
:1003400004D0D208024201D113000D00DB00FF24CB
:10035000CBE61300FF240D00C7E6002B0DD0FF24D1
:10036000002A00D1C1E68021DB08C9030B42EDD091
:10037000D2080A42EAD11300E8E71300FF24B4E6EA
:10038000012372E713003400AFE60027002022E7C4
:1003900080270020FF03F1E61300A6E60123A5E76E
:1003A000FFFFFF7DFFFFFFFBF0B5564644465F466B
:1003B0004D46F0B444024600C70F83B08846650A34
:1003C000360EBA463DD0FF2E22D00023EC00802509
:1003D00099469B46ED0425437F3E43465C02580008
:1003E000DB0F640A000E984636D0FF2830D08023F9
:1003F0000021E400DB041C437F38301A019048469A
:1004000042460843724E800030587A4013008746B7
:10041000002D44D108239946063B9B46DDE7012287
:10042000FF2000241A406402C305640AD2071C435B
:100430001443200003B03CBC90469946A246AB460C
:10044000F0BD002D20D104239946033B9B46C4E711
:10045000002C17D1022102E0002C0AD10121321A0E
:1004600001924A4643460A435A48920082587B40CA
:100470009746200002F052FB431F76309C404042DA
:100480000021BAE70321B8E7280002F047FB431F29
:100490009D4000237630464299469B469DE70C23BB
:1004A0009946093B9B4698E780240022E403FF20FD
:1004B000B9E70024C2468B465A465346022AAED0BC
:1004C000032A7DD0012A31D1012200201A400024C4
:1004D000A9E70122101A1B2856DD1A40002000242B
:1004E000A1E78023DB031D424BD18023DB032B4399
:1004F0005C02640A3A00FF2095E76D0160018542C5
:1005000030D2019A0024013A01921B2201272900CE
:1005100064006D00002901DBA84201D82D1A3C437C
:10052000013A002AF3D16A1E95412C4301987F308D
:100530000028CEDD620704D00F222240042A00D01A
:100540000434220103D5244A019814408030FE2847
:1005500000DD64E70122A401640AC0B21A4062E728
:100560002C00A9E72D1A1A220124CFE76B02BCD573
:1005700000248023DB031C436402640A4246FF20FC
:1005800051E71C42B3D1F4E721002022C140101AE8
:100590008440621E94410C43620704D00F22224023
:1005A000042A00D00434620104D5012201201A403B
:1005B000002438E70122A401640A1A40002032E72F
:1005C0008023DB031C436402640A5246FF202AE7AF
:1005D0001C5F02005C5F0200FFFFFFF7430270B583
:1005E00042004C005D0AC30F4802120E460A240E58
:1005F000C90FFF2A0FD0FF2C11D00120A24200D03A
:1006000070BDB542FCD18B420DD0002AF8D1280034
:10061000431E9841F4E70120002DF1D1EBE70120C2
:10062000002EEDD1E9E70020EAE7C0464302F0B52D
:1006300042005D0AC30F4802440A4800120E000E31
:10064000C90FFF2A1FD0FF2822D0002A09D16E42ED
:100650006E4100280FD1002C0DD10020002D09D0B3
:1006600005E0002801D1002C01D08B4213D0584264
:1006700001231843F0BD002EF7D04842414101202C
:1006800049420843F6E7002DDDD002204042F1E761
:10069000002CDAD0F9E78242E9DC04DBA542E6D897
:1006A0000020A542E6D25842434101205B42184354
:1006B000E0E7C0464302F0B542004C005E0AC30FBB
:1006C0004802120E450A240EC90FFF2A17D0FF2C2C
:1006D00019D0002A0BD170427041002C17D000288D
:1006E00007D048424141012049420843F0BD002C57
:1006F00013D08B4214D0584201231843F6E702204E
:10070000002EF3D1E3E70220002DEFD1E1E7002D29
:10071000E5D10020002EE9D0EDE7002DE9D1EAE790
:10072000A242E8DC04DBAE42E5D80020AE42DDD2D6
:100730005842434101205B421843D7E7F0B5574682
:100740004E4645464300E0B446028846760A1F0EF0
:10075000C40F002F47D0FF2F25D0002380259A46B5
:100760009946F600ED042E437F3F434642465D0224
:10077000D20F5B006D0A1B0E904640D0FF2B39D084
:1007800080220020ED00D20415437F3BFB18424637
:100790005746591C62408C4607430F2F5CD86F495F
:1007A000BF00C9598F46002E45D108239A46063B03
:1007B0009946DAE7424602282DD0032800D1C3E04B
:1007C000012800D0A2E0002500260240D4B2760223
:1007D000ED05760A2E43E407264330001CBC904604
:1007E0009946A246F0BD002E1AD104239A46033B37
:1007F0009946BAE72A00511E8A41901CC6E701209B
:10080000002DC3D0280002F089F9431F76309D40A7
:1008100043420020BAE70124FF2514400026D6E712
:10082000300002F07BF9431F9E40002376304742A0
:100830009A46994699E70C239A46093B994694E7CC
:1008400080260024F603FF25C1E735004846B2E7BD
:10085000350022004846AEE72904090C0800370C91
:100860003604360C2C0C7943704367437443060CF2
:1008700064183619B14203D9802149028846474499
:100880000004000C310409188D01681E8541890E91
:100890002943350CED19AD010D43290104D5012380
:1008A00069081D4063460D4319007F31002925DD8D
:1008B000680704D00F202840042800D00435280100
:1008C00003D5274980330D401900FE29A3DC0124FC
:1008D000AD016E0A1440CDB279E78020C003064214
:1008E00007D0054205D128434602760A4446FF2533
:1008F0006DE706437602760AFF2568E70124611A50
:100900001B2905DD14400025002660E76346CBE780
:100910002E002023CE40591A8D406B1E9D412E4340
:10092000730704D00F233340042B00D00436730127
:1009300004D5012401251440002648E70124B6010E
:10094000760A1440002542E780260124F6032E4350
:100950007602760A1440FF2539E7C0469C5F020004
:10096000FFFFFFF7F8B54A024E0043024400240E91
:10097000C50F9B09360EC90F9209FF2E00D183E0E7
:1009800001204140A01BA9425CD0002800DC95E07A
:10099000002E1CD1002A00D081E05A0704D00F227B
:1009A0001A40042A00D004335A013BD50134FF2CED
:1009B00000D191E001209B015B0AE4B205405B029B
:1009C000E4055B0AED0723432B431800F8BDFF2C19
:1009D000E3D08021C9040A431B2800DD90E0160003
:1009E0002021C640081A8240511E8A4132439B1A78
:1009F0005A0115D59B019E09300002F08FF8053889
:100A0000864084426CDC041B330020200134E34028
:100A1000041BA640721E964100243343BDE70D001F
:100A20005A07BCD1DF0801231D40FF2C33D1002F12
:100A300000D190E08022D20313003B435B025B0AAB
:100A4000FF24BCE700284FDD002E2ED0FF2CA4D0C1
:100A50008025ED042A431B2800DD97E016002025A1
:100A6000C640281A8240501E824132439B185A01C8
:100A7000D5D50134FF2C6DD001227B481A405B088C
:100A8000034013430D0088E7002A00D07AE777E798
:100A9000031EC5D100257B025B0AE4B28FE7013853
:100AA0000028A4D0FF2C97D177E7002A00D174E763
:100AB00001380028DAD0FF2CCDD16EE7002821D1F3
:100AC000601CC0B2012858DD80279E1AFF04374001
